{
  "contractName": "CVShare",
  "abi": [
    {
      "inputs": [
        {
          "internalType": "address",
          "name": "_studentRegistry",
          "type": "address"
        }
      ],
      "stateMutability": "nonpayable",
      "type": "constructor"
    },
    {
      "anonymous": false,
      "inputs": [
        {
          "indexed": true,
          "internalType": "address",
          "name": "student",
          "type": "address"
        },
        {
          "indexed": false,
          "internalType": "string",
          "name": "ipfsHash",
          "type": "string"
        }
      ],
      "name": "CVShared",
      "type": "event"
    },
    {
      "inputs": [
        {
          "internalType": "address",
          "name": "",
          "type": "address"
        }
      ],
      "name": "studentCVs",
      "outputs": [
        {
          "internalType": "string",
          "name": "ipfsHash",
          "type": "string"
        },
        {
          "internalType": "bool",
          "name": "isPublic",
          "type": "bool"
        },
        {
          "internalType": "uint256",
          "name": "timestamp",
          "type": "uint256"
        },
        {
          "internalType": "address",
          "name": "owner",
          "type": "address"
        }
      ],
      "stateMutability": "view",
      "type": "function"
    },
    {
      "inputs": [],
      "name": "studentRegistry",
      "outputs": [
        {
          "internalType": "contract StudentRegistry",
          "name": "",
          "type": "address"
        }
      ],
      "stateMutability": "view",
      "type": "function"
    },
    {
      "inputs": [
        {
          "internalType": "string",
          "name": "_ipfsHash",
          "type": "string"
        },
        {
          "internalType": "bool",
          "name": "_isPublic",
          "type": "bool"
        }
      ],
      "name": "shareCV",
      "outputs": [],
      "stateMutability": "nonpayable",
      "type": "function"
    }
  ],
  "bytecode": "0x608060405234801561000f575f80fd5b5060405161061838038061061883398101604081905261002e91610052565b5f80546001600160a01b0319166001600160a01b039290921691909117905561007f565b5f60208284031215610062575f80fd5b81516001600160a01b0381168114610078575f80fd5b9392505050565b61058c8061008c5f395ff3fe608060405234801561000f575f80fd5b506004361061003f575f3560e01c806317de22d51461004357806392c16fb514610058578063da25f5bd14610087575b5f80fd5b61005661005136600461029f565b6100aa565b005b5f5461006a906001600160a01b031681565b6040516001600160a01b0390911681526020015b60405180910390f35b61009a61009536600461035b565b6101bb565b60405161007e94939291906103cb565b5f8251116100f25760405162461bcd60e51b8152602060048201526011602482015270092dcecc2d8d2c84092a08ca640d0c2e6d607b1b604482015260640160405180910390fd5b60408051608081018252838152821515602080830191909152428284015233606083018190525f908152600190915291909120815181906101339082610488565b50602082015160018201805460ff19169115159190911790556040808301516002830155606090920151600390910180546001600160a01b0319166001600160a01b039092169190911790555133907f04e378d9456a29f2b7d050cdd26cc378bab9353f371b251e9b0eee0c7d0c2238906101af908590610544565b60405180910390a25050565b60016020525f90815260409020805481906101d590610402565b80601f016020809104026020016040519081016040528092919081815260200182805461020190610402565b801561024c5780601f106102235761010080835404028352916020019161024c565b820191905f5260205f20905b81548152906001019060200180831161022f57829003601f168201915b5050505060018301546002840154600390940154929360ff909116929091506001600160a01b031684565b634e487b7160e01b5f52604160045260245ffd5b8035801515811461029a575f80fd5b919050565b5f80604083850312156102b0575f80fd5b823567ffffffffffffffff808211156102c7575f80fd5b818501915085601f8301126102da575f80fd5b8135818111156102ec576102ec610277565b604051601f8201601f19908116603f0116810190838211818310171561031457610314610277565b8160405282815288602084870101111561032c575f80fd5b826020860160208301375f6020848301015280965050505050506103526020840161028b565b90509250929050565b5f6020828403121561036b575f80fd5b81356001600160a01b0381168114610381575f80fd5b9392505050565b5f81518084525f5b818110156103ac57602081850181015186830182015201610390565b505f602082860101526020601f19601f83011685010191505092915050565b608081525f6103dd6080830187610388565b94151560208301525060408101929092526001600160a01b0316606090910152919050565b600181811c9082168061041657607f821691505b60208210810361043457634e487b7160e01b5f52602260045260245ffd5b50919050565b601f821115610483575f81815260208120601f850160051c810160208610156104605750805b601f850160051c820191505b8181101561047f5782815560010161046c565b5050505b505050565b815167ffffffffffffffff8111156104a2576104a2610277565b6104b6816104b08454610402565b8461043a565b602080601f8311600181146104e9575f84156104d25750858301515b5f19600386901b1c1916600185901b17855561047f565b5f85815260208120601f198616915b82811015610517578886015182559484019460019091019084016104f8565b508582101561053457878501515f19600388901b60f8161c191681555b5050505050600190811b01905550565b602081525f610381602083018461038856fea2646970667358221220e4149c8e97dcb8f3989c04121ff7e4e32114488dc05d47503c758121a86813d264736f6c63430008150033",
  "immutableReferences": {},
  "source": "// SPDX-License-Identifier: MIT\r\npragma solidity ^0.8.21;\r\n\r\nimport \"./StudentRegistry.sol\";\r\n\r\ncontract CVShare {\r\n    StudentRegistry public studentRegistry;\r\n    \r\n    struct CV {\r\n        string ipfsHash;\r\n        bool isPublic;\r\n        uint256 timestamp;\r\n        address owner;\r\n    }\r\n    \r\n    mapping(address => CV) public studentCVs;\r\n    \r\n    event CVShared(address indexed student, string ipfsHash);\r\n    \r\n    constructor(address _studentRegistry) {\r\n        studentRegistry = StudentRegistry(_studentRegistry);\r\n    }\r\n    \r\n    function shareCV(string memory _ipfsHash, bool _isPublic) public {\r\n        require(bytes(_ipfsHash).length > 0, \"Invalid IPFS hash\");\r\n        \r\n        studentCVs[msg.sender] = CV({\r\n            ipfsHash: _ipfsHash,\r\n            isPublic: _isPublic,\r\n            timestamp: block.timestamp,\r\n            owner: msg.sender\r\n        });\r\n        \r\n        emit CVShared(msg.sender, _ipfsHash);\r\n    }\r\n}",
  "sourcePath": "C:\\Assignments\\CS4207\\CS4207-Blockbusters-FinalProject\\contracts\\CVShare.sol",
  "compiler": {
    "name": "solc",
    "version": "0.8.21+commit.d9974bed.Emscripten.clang"
  },
  "schemaVersion": "3.4.16",
  "updatedAt": "2024-12-02T11:58:07.488Z",
  "devdoc": {
    "kind": "dev",
    "methods": {},
    "version": 1
  },
  "userdoc": {
    "kind": "user",
    "methods": {},
    "version": 1
  }
}