{
  "contractName": "CVShare",
  "abi": [
    {
      "inputs": [
        {
          "internalType": "address",
          "name": "_studentRegistry",
          "type": "address"
        }
      ],
      "stateMutability": "nonpayable",
      "type": "constructor"
    },
    {
      "anonymous": false,
      "inputs": [
        {
          "indexed": true,
          "internalType": "address",
          "name": "student",
          "type": "address"
        },
        {
          "indexed": false,
          "internalType": "string",
          "name": "ipfsHash",
          "type": "string"
        }
      ],
      "name": "CVShared",
      "type": "event"
    },
    {
      "inputs": [
        {
          "internalType": "address",
          "name": "",
          "type": "address"
        }
      ],
      "name": "studentCVs",
      "outputs": [
        {
          "internalType": "string",
          "name": "ipfsHash",
          "type": "string"
        },
        {
          "internalType": "bool",
          "name": "isPublic",
          "type": "bool"
        },
        {
          "internalType": "uint256",
          "name": "timestamp",
          "type": "uint256"
        },
        {
          "internalType": "address",
          "name": "owner",
          "type": "address"
        }
      ],
      "stateMutability": "view",
      "type": "function"
    },
    {
      "inputs": [],
      "name": "studentRegistry",
      "outputs": [
        {
          "internalType": "contract StudentRegistry",
          "name": "",
          "type": "address"
        }
      ],
      "stateMutability": "view",
      "type": "function"
    },
    {
      "inputs": [
        {
          "internalType": "string",
          "name": "_ipfsHash",
          "type": "string"
        },
        {
          "internalType": "bool",
          "name": "_isPublic",
          "type": "bool"
        }
      ],
      "name": "shareCV",
      "outputs": [],
      "stateMutability": "nonpayable",
      "type": "function"
    }
  ],
  "bytecode": "0x60803461007457601f6105c938819003918201601f19168301916001600160401b038311848410176100795780849260209460405283398101031261007457516001600160a01b0381169081900361007457600080546001600160a01b03191691909117905560405161053990816100908239f35b600080fd5b634e487b7160e01b600052604160045260246000fdfe608060409080825260048036101561001657600080fd5b600091823560e01c90816317de22d5146101705750806392c16fb5146101485763da25f5bd1461004557600080fd5b346101445760209081600319360112610140576001600160a01b039190358281169081900361013c578352600193848252808420908051948083549061008a82610489565b8089529189811690811561011e57506001146100ec575b50506100d9966100b58760ff930388610451565b830154169360036002840154930154169281519687966080885260808801906104c3565b9415159086015284015260608301520390f35b91508382528482205b81831061010b57505085018301866100b56100a1565b80548884018701529185019188016100f5565b60ff1916878a01525050151560051b860184019050866100b56100a1565b8380fd5b8280fd5b5080fd5b828434610144578160031936011261014457905490516001600160a01b039091168152602090f35b838584923461014057816003193601126101405767ffffffffffffffff91843583811161044d573660238201121561044d57808601359084821161043a57602094601f19926101c6601f82018516880187610451565b8086526024923684838301011161043657818992858a9301838a0137870101528135801515809103610432578551156103fc5784519260808401848110848211176103ea578652868452878401918252858401924284526060850195338752338b52600192838b52888c2096519c8d519384116103d95750506102498654610489565b601f8111610393575b508990601f8311600114610309575091816102f8999897969492600396948d9e7f04e378d9456a29f2b7d050cdd26cc378bab9353f371b251e9b0eee0c7d0c22389d9e926102fe575b505060001982881b1c191690821b1784555b83019051151560ff80198354169116179055516002820155019060018060a01b039051166bffffffffffffffffffffffff60a01b8254161790555191829185835233958301906104c3565b0390a280f35b015190508e8061029b565b82169b868c528a8c209c8c5b81811061037e5750927f04e378d9456a29f2b7d050cdd26cc378bab9353f371b251e9b0eee0c7d0c22389b9c9d85936003989693836102f89e9d9c9b999710610366575b505050811b0184556102ad565b0151600019838a1b60f8161c191690558e8080610359565b838301518f559d85019d928c01928c01610315565b868c528a8c20601f840160051c8101918c85106103cf575b601f0160051c019084905b8281106103c4575050610252565b8d81550184906103b6565b90915081906103ab565b634e487b7160e01b8d52604190528bfd5b50634e487b7160e01b895260418a5288fd5b845162461bcd60e51b8152808a0188905260118185015270092dcecc2d8d2c84092a08ca640d0c2e6d607b1b6044820152606490fd5b8780fd5b8880fd5b634e487b7160e01b865260418752602486fd5b8480fd5b90601f8019910116810190811067ffffffffffffffff82111761047357604052565b634e487b7160e01b600052604160045260246000fd5b90600182811c921680156104b9575b60208310146104a357565b634e487b7160e01b600052602260045260246000fd5b91607f1691610498565b919082519283825260005b8481106104ef575050826000602080949584010152601f8019910116010190565b6020818301810151848301820152016104ce56fea2646970667358221220263e0f2c9fadbba3a81df085d5627d5539021695d4b11cf227c59b850879267564736f6c63430008130033",
  "immutableReferences": {},
  "source": "// SPDX-License-Identifier: MIT\r\npragma solidity ^0.8.19;\r\n\r\nimport \"./StudentRegistry.sol\";\r\n\r\ncontract CVShare {\r\n    StudentRegistry public studentRegistry;\r\n    \r\n    struct CV {\r\n        string ipfsHash;\r\n        bool isPublic;\r\n        uint256 timestamp;\r\n        address owner;\r\n    }\r\n    \r\n    mapping(address => CV) public studentCVs;\r\n    \r\n    event CVShared(address indexed student, string ipfsHash);\r\n    \r\n    constructor(address _studentRegistry) {\r\n        studentRegistry = StudentRegistry(_studentRegistry);\r\n    }\r\n    \r\n    function shareCV(string memory _ipfsHash, bool _isPublic) public {\r\n        require(bytes(_ipfsHash).length > 0, \"Invalid IPFS hash\");\r\n        \r\n        studentCVs[msg.sender] = CV({\r\n            ipfsHash: _ipfsHash,\r\n            isPublic: _isPublic,\r\n            timestamp: block.timestamp,\r\n            owner: msg.sender\r\n        });\r\n        \r\n        emit CVShared(msg.sender, _ipfsHash);\r\n    }\r\n}",
  "sourcePath": "C:\\Users\\35383\\blockchainProject\\CS4207-Blockbusters-FinalProject\\contracts\\CVShare.sol",
  "compiler": {
    "name": "solc",
    "version": "0.8.19+commit.7dd6d404.Emscripten.clang"
  },
  "schemaVersion": "3.4.16",
  "updatedAt": "2024-12-04T21:43:47.839Z",
  "devdoc": {
    "kind": "dev",
    "methods": {},
    "version": 1
  },
  "userdoc": {
    "kind": "user",
    "methods": {},
    "version": 1
  }
}