{
  "contractName": "InterviewShare",
  "abi": [
    {
      "inputs": [
        {
          "internalType": "address",
          "name": "_studentRegistry",
          "type": "address"
        }
      ],
      "stateMutability": "nonpayable",
      "type": "constructor"
    },
    {
      "anonymous": false,
      "inputs": [
        {
          "indexed": true,
          "internalType": "address",
          "name": "sharer",
          "type": "address"
        },
        {
          "indexed": false,
          "internalType": "string",
          "name": "companyName",
          "type": "string"
        }
      ],
      "name": "InterviewShared",
      "type": "event"
    },
    {
      "inputs": [
        {
          "internalType": "string",
          "name": "",
          "type": "string"
        },
        {
          "internalType": "uint256",
          "name": "",
          "type": "uint256"
        }
      ],
      "name": "companyInterviews",
      "outputs": [
        {
          "internalType": "string",
          "name": "companyName",
          "type": "string"
        },
        {
          "internalType": "string",
          "name": "position",
          "type": "string"
        },
        {
          "internalType": "uint256",
          "name": "timestamp",
          "type": "uint256"
        },
        {
          "internalType": "address",
          "name": "sharedBy",
          "type": "address"
        }
      ],
      "stateMutability": "view",
      "type": "function"
    },
    {
      "inputs": [],
      "name": "studentRegistry",
      "outputs": [
        {
          "internalType": "contract IStudentRegistry",
          "name": "",
          "type": "address"
        }
      ],
      "stateMutability": "view",
      "type": "function"
    },
    {
      "inputs": [
        {
          "internalType": "string",
          "name": "_companyName",
          "type": "string"
        },
        {
          "internalType": "string[]",
          "name": "_questions",
          "type": "string[]"
        },
        {
          "internalType": "string",
          "name": "_position",
          "type": "string"
        }
      ],
      "name": "shareInterview",
      "outputs": [],
      "stateMutability": "nonpayable",
      "type": "function"
    }
  ],
  "bytecode": "0x608060405234801561000f575f80fd5b50604051610a66380380610a6683398101604081905261002e91610052565b5f80546001600160a01b0319166001600160a01b039290921691909117905561007f565b5f60208284031215610062575f80fd5b81516001600160a01b0381168114610078575f80fd5b9392505050565b6109da8061008c5f395ff3fe608060405234801561000f575f80fd5b506004361061003f575f3560e01c806392c16fb514610043578063e1ca42bd14610072578063e9ffeaab14610087575b5f80fd5b5f54610055906001600160a01b031681565b6040516001600160a01b0390911681526020015b60405180910390f35b6100856100803660046105d5565b6100aa565b005b61009a6100953660046106d5565b6102ec565b6040516100699493929190610764565b5f80546040516312e0b2bb60e21b81523360048201526001600160a01b0390911690634b82caec906024015f60405180830381865afa1580156100ef573d5f803e3d5ffd5b505050506040513d5f823e601f3d908101601f1916820160405261011691908101906107aa565b92505050806004146101835760405162461bcd60e51b815260206004820152602b60248201527f4f6e6c792034746820796561722073747564656e74732063616e20736861726560448201526a20696e746572766965777360a81b60648201526084015b60405180910390fd5b5f8351116101de5760405162461bcd60e51b815260206004820152602260248201527f4d7573742070726f76696465206174206c65617374206f6e652071756573746960448201526137b760f11b606482015260840161017a565b6040805160a08101825285815260208101859052808201849052426060820152336080820152905160019061021490879061082e565b9081526040516020918190038201902080546001810182555f9182529190208251839260050290910190819061024a90826108cf565b5060208281015180516102639260018501920190610459565b506040820151600282019061027890826108cf565b5060608201516003820155608090910151600490910180546001600160a01b0319166001600160a01b0390921691909117905560405133907f549731d9c7dbd9d14a37b75ae42807d2fe6da053f021ac7a754846d375f34dd4906102dd90889061098b565b60405180910390a25050505050565b81516020818401810180516001825292820191850191909120919052805482908110610316575f80fd5b905f5260205f2090600502015f9150915050805f01805461033690610849565b80601f016020809104026020016040519081016040528092919081815260200182805461036290610849565b80156103ad5780601f10610384576101008083540402835291602001916103ad565b820191905f5260205f20905b81548152906001019060200180831161039057829003601f168201915b5050505050908060020180546103c290610849565b80601f01602080910402602001604051908101604052809291908181526020018280546103ee90610849565b80156104395780601f1061041057610100808354040283529160200191610439565b820191905f5260205f20905b81548152906001019060200180831161041c57829003601f168201915b5050505060038301546004909301549192916001600160a01b0316905084565b828054828255905f5260205f2090810192821561049d579160200282015b8281111561049d578251829061048d90826108cf565b5091602001919060010190610477565b506104a99291506104ad565b5090565b808211156104a9575f6104c082826104c9565b506001016104ad565b5080546104d590610849565b5f825580601f106104e4575050565b601f0160209004905f5260205f20908101906105009190610503565b50565b5b808211156104a9575f8155600101610504565b634e487b7160e01b5f52604160045260245ffd5b604051601f8201601f1916810167ffffffffffffffff8111828210171561055457610554610517565b604052919050565b5f67ffffffffffffffff82111561057557610575610517565b50601f01601f191660200190565b5f82601f830112610592575f80fd5b81356105a56105a08261055c565b61052b565b8181528460208386010111156105b9575f80fd5b816020850160208301375f918101602001919091529392505050565b5f805f606084860312156105e7575f80fd5b833567ffffffffffffffff808211156105fe575f80fd5b61060a87838801610583565b9450602091508186013581811115610620575f80fd5b8601601f81018813610630575f80fd5b80358281111561064257610642610517565b8060051b61065185820161052b565b918252828101850191858101908b84111561066a575f80fd5b86850192505b838310156106a557823586811115610687575f8081fd5b6106958d8983890101610583565b8352509186019190860190610670565b97505050506040870135925050808211156106be575f80fd5b506106cb86828701610583565b9150509250925092565b5f80604083850312156106e6575f80fd5b823567ffffffffffffffff8111156106fc575f80fd5b61070885828601610583565b95602094909401359450505050565b5f5b83811015610731578181015183820152602001610719565b50505f910152565b5f8151808452610750816020860160208601610717565b601f01601f19169290920160200192915050565b608081525f6107766080830187610739565b82810360208401526107888187610739565b604084019590955250506001600160a01b039190911660609091015292915050565b5f805f606084860312156107bc575f80fd5b835167ffffffffffffffff8111156107d2575f80fd5b8401601f810186136107e2575f80fd5b80516107f06105a08261055c565b818152876020838501011115610804575f80fd5b610815826020830160208601610717565b6020870151604090970151909896975095945050505050565b5f825161083f818460208701610717565b9190910192915050565b600181811c9082168061085d57607f821691505b60208210810361087b57634e487b7160e01b5f52602260045260245ffd5b50919050565b601f8211156108ca575f81815260208120601f850160051c810160208610156108a75750805b601f850160051c820191505b818110156108c6578281556001016108b3565b5050505b505050565b815167ffffffffffffffff8111156108e9576108e9610517565b6108fd816108f78454610849565b84610881565b602080601f831160018114610930575f84156109195750858301515b5f19600386901b1c1916600185901b1785556108c6565b5f85815260208120601f198616915b8281101561095e5788860151825594840194600190910190840161093f565b508582101561097b57878501515f19600388901b60f8161c191681555b5050505050600190811b01905550565b602081525f61099d6020830184610739565b939250505056fea2646970667358221220836e7a3f1de4ef551523464288a3690bd8052216154bf1c1155db93b6972715e64736f6c63430008150033",
  "immutableReferences": {},
  "source": "// SPDX-License-Identifier: MIT\r\npragma solidity ^0.8.21;\r\n\r\nimport \"./IStudentRegistry.sol\";\r\n\r\ncontract InterviewShare {\r\n    IStudentRegistry public studentRegistry;\r\n    \r\n    struct Interview {\r\n        string companyName;\r\n        string[] questions;\r\n        string position;\r\n        uint256 timestamp;\r\n        address sharedBy;\r\n    }\r\n    \r\n    mapping(string => Interview[]) public companyInterviews;\r\n    \r\n    event InterviewShared(address indexed sharer, string companyName);\r\n    \r\n    modifier onlyFourthYear() {\r\n        (, , uint256 year) = studentRegistry.getStudentInfo(msg.sender);\r\n        require(year == 4, \"Only 4th year students can share interviews\");\r\n        _;\r\n    }\r\n    \r\n    constructor(address _studentRegistry) {\r\n        studentRegistry = IStudentRegistry(_studentRegistry);\r\n    }\r\n    \r\n    function shareInterview(\r\n        string memory _companyName,\r\n        string[] memory _questions,\r\n        string memory _position\r\n    ) public onlyFourthYear {\r\n        require(_questions.length > 0, \"Must provide at least one question\");\r\n        \r\n        Interview memory interview = Interview({\r\n            companyName: _companyName,\r\n            questions: _questions,\r\n            position: _position,\r\n            timestamp: block.timestamp,\r\n            sharedBy: msg.sender\r\n        });\r\n        \r\n        companyInterviews[_companyName].push(interview);\r\n        emit InterviewShared(msg.sender, _companyName);\r\n    }\r\n}",
  "sourcePath": "C:\\Assignments\\CS4207\\CS4207-Blockbusters-FinalProject\\contracts\\InterviewShare.sol",
  "compiler": {
    "name": "solc",
    "version": "0.8.21+commit.d9974bed.Emscripten.clang"
  },
  "schemaVersion": "3.4.16",
  "updatedAt": "2024-12-02T11:58:07.492Z",
  "devdoc": {
    "kind": "dev",
    "methods": {},
    "version": 1
  },
  "userdoc": {
    "kind": "user",
    "methods": {},
    "version": 1
  }
}