{
  "contractName": "InterviewShare",
  "abi": [
    {
      "inputs": [
        {
          "internalType": "address",
          "name": "_studentRegistry",
          "type": "address"
        }
      ],
      "stateMutability": "nonpayable",
      "type": "constructor"
    },
    {
      "anonymous": false,
      "inputs": [
        {
          "indexed": true,
          "internalType": "address",
          "name": "sharer",
          "type": "address"
        },
        {
          "indexed": false,
          "internalType": "string",
          "name": "companyName",
          "type": "string"
        }
      ],
      "name": "InterviewShared",
      "type": "event"
    },
    {
      "inputs": [
        {
          "internalType": "string",
          "name": "",
          "type": "string"
        },
        {
          "internalType": "uint256",
          "name": "",
          "type": "uint256"
        }
      ],
      "name": "companyInterviews",
      "outputs": [
        {
          "internalType": "string",
          "name": "companyName",
          "type": "string"
        },
        {
          "internalType": "string",
          "name": "position",
          "type": "string"
        },
        {
          "internalType": "uint256",
          "name": "timestamp",
          "type": "uint256"
        },
        {
          "internalType": "address",
          "name": "sharedBy",
          "type": "address"
        }
      ],
      "stateMutability": "view",
      "type": "function",
      "constant": true
    },
    {
      "inputs": [
        {
          "internalType": "uint256",
          "name": "",
          "type": "uint256"
        }
      ],
      "name": "companyList",
      "outputs": [
        {
          "internalType": "string",
          "name": "",
          "type": "string"
        }
      ],
      "stateMutability": "view",
      "type": "function",
      "constant": true
    },
    {
      "inputs": [],
      "name": "studentRegistry",
      "outputs": [
        {
          "internalType": "contract IStudentRegistry",
          "name": "",
          "type": "address"
        }
      ],
      "stateMutability": "view",
      "type": "function",
      "constant": true
    },
    {
      "inputs": [
        {
          "internalType": "string",
          "name": "_companyName",
          "type": "string"
        },
        {
          "internalType": "string[]",
          "name": "_questions",
          "type": "string[]"
        },
        {
          "internalType": "string",
          "name": "_position",
          "type": "string"
        }
      ],
      "name": "shareInterview",
      "outputs": [],
      "stateMutability": "nonpayable",
      "type": "function"
    },
    {
      "inputs": [],
      "name": "getAllInterviews",
      "outputs": [
        {
          "components": [
            {
              "internalType": "string",
              "name": "companyName",
              "type": "string"
            },
            {
              "internalType": "string[]",
              "name": "questions",
              "type": "string[]"
            },
            {
              "internalType": "string",
              "name": "position",
              "type": "string"
            },
            {
              "internalType": "uint256",
              "name": "timestamp",
              "type": "uint256"
            },
            {
              "internalType": "address",
              "name": "sharedBy",
              "type": "address"
            }
          ],
          "internalType": "struct InterviewShare.Interview[]",
          "name": "",
          "type": "tuple[]"
        }
      ],
      "stateMutability": "view",
      "type": "function",
      "constant": true
    }
  ],
  "bytecode": "0x60803461007457601f610e7038819003918201601f19168301916001600160401b038311848410176100795780849260209460405283398101031261007457516001600160a01b0381169081900361007457600080546001600160a01b031916919091179055604051610de090816100908239f35b600080fd5b634e487b7160e01b600052604160045260246000fdfe6080604052600436101561001257600080fd5b60003560e01c80637b1389011461069557806392c16fb51461066c578063d0366e5514610613578063e1ca42bd146101425763e9ffeaab1461005357600080fd5b3461013d57604036600319011261013d5760043567ffffffffffffffff811161013d57610084903690600401610b64565b6100a060206024359281604051938285809451938492016109a5565b81016001815203019020805482101561013d57610120916100c091610bc3565b50604051906100da826100d38184610a74565b0383610b26565b6040516100f5816100ee8160028601610a74565b0382610b26565b61012e600383015492600460018060a01b0391015416916040519586956080875260808701906109c8565b9085820360208701526109c8565b91604084015260608301520390f35b600080fd5b3461013d57606036600319011261013d5767ffffffffffffffff60043581811161013d57610174903690600401610b64565b9060243581811161013d573660238201121561013d57806004013561019881610bab565b916101a66040519384610b26565b8183526024602084019260051b8201019136831161013d5760248201905b8382106105eb575050505060443582811161013d576101e7903690600401610b64565b600080546040516312e0b2bb60e21b81523360048201529294929190829060249082906001600160a01b03165afa9081156105df57600091610564575b50600491500361050b578051156104bb576040519161024283610b0a565b83835260208301918252604083015242606083015233608083015260405160208185516102728183858a016109a5565b810160018152030190208054600160401b8110156103c85761029991600182018155610bc3565b9190916103b2576102ab835183610bf6565b51805190600160401b82116103c8576001830154826001850155808310610442575b506020016001830160005260206000206000915b8383106104255786866004876102fe604084015160028301610bf6565b606083015160038201550190608060018060a01b03910151166bffffffffffffffffffffffff60a01b825416179055600080600254915b8281106103de575b5015610382575b507f549731d9c7dbd9d14a37b75ae42807d2fe6da053f021ac7a754846d375f34dd4604051602081528061037d339460208301906109c8565b0390a2005b600160401b8110156103c85780600161039e92016002556109ed565b6103b257816103ac91610bf6565b81610344565b634e487b7160e01b600052600060045260246000fd5b634e487b7160e01b600052604160045260246000fd5b6100ee6103fa6103ed836109ed565b5060405192838092610a74565b60208151910120845160208601201461041b5761041690610cfb565b610335565b505060018361033d565b600160208261043683945186610bf6565b019201920191906102e1565b600184016000526020600020908382015b81830181106104635750506102cd565b8061047060019254610a3a565b8061047d575b5001610453565b601f908181118414610496575050600081555b89610476565b6104b260009284845260208420920160051c8201858301610bdf565b81835555610490565b60405162461bcd60e51b815260206004820152602260248201527f4d7573742070726f76696465206174206c65617374206f6e652071756573746960448201526137b760f11b6064820152608490fd5b60405162461bcd60e51b815260206004820152602b60248201527f4f6e6c792034746820796561722073747564656e74732063616e20736861726560448201526a20696e746572766965777360a81b6064820152608490fd5b90503d806000833e6105768183610b26565b81019160608284031261013d57815190811161013d5781019082601f8301121561013d578151926105a684610b48565b906105b46040519283610b26565b8482526020858501011161013d576004936040936020806105d7940191016109a5565b015185610224565b6040513d6000823e3d90fd5b813586811161013d57602091610608839260243691880101610b64565b8152019101906101c4565b3461013d57602036600319011261013d5760043560025481101561013d5761063a906109ed565b6103b2576100ee6106546106689260405192838092610a74565b6040519182916020835260208301906109c8565b0390f35b3461013d57600036600319011261013d576000546040516001600160a01b039091168152602090f35b3461013d57600036600319011261013d57600080600254905b81811061096957506106bf82610bab565b916106cd6040519384610b26565b8083526106dc601f1991610bab565b0160005b8181106109315750506000805b8282106107f857836040518091602082016020835281518091526040830190602060408260051b8601019301916000905b82821061072d57505050500390f35b919390929450603f19868203018252845190610751825160a08084528301906109c8565b60208301519082810360208401528151808252602082016020808360051b85010194019260005b8381106107cd575050505050826020926107a184936040600197015183820360408501526109c8565b916060808201519083015260809081878060a01b0391015116910152960192019201859493919261071e565b90919293946020806107eb600193601f1987820301885289516109c8565b9701959401929101610778565b600093919293905b61081261080c856109ed565b50610d0a565b5482101561091c5761082f8261082a61080c876109ed565b610bc3565b506040519061083d82610b0a565b60405161084e816100ee8185610a74565b825260018101805461085f81610bab565b9161086d6040519384610b26565b818352602083019060005260206000206000915b8383106108f75750505050916108f193916108eb9360208301526040516108af816100ee8160028601610a74565b604083015260038101546060830152600401546001600160a01b031660808201526108da8287610d96565b526108e58186610d96565b50610cfb565b91610cfb565b90610800565b60016020819260405161090e816100ee8189610a74565b815201920192019190610881565b9261092a9150939193610cfb565b90916106ed565b60209060405161094081610b0a565b6060808252600084918083850152806040850152830152600060808301528287010152016106e0565b9161097661080c846109ed565b54810180911161098f5761098a9092610cfb565b6106ae565b634e487b7160e01b600052601160045260246000fd5b60005b8381106109b85750506000910152565b81810151838201526020016109a8565b906020916109e1815180928185528580860191016109a5565b601f01601f1916010190565b600254811015610a245760026000527f405787fa12a823e0f2b7631cc41b3ba8828b3321ca811111fa75cd3aa3bb5ace0190600090565b634e487b7160e01b600052603260045260246000fd5b90600182811c92168015610a6a575b6020831014610a5457565b634e487b7160e01b600052602260045260246000fd5b91607f1691610a49565b9060009291805491610a8583610a3a565b918282526001938481169081600014610ae75750600114610aa7575b50505050565b90919394506000526020928360002092846000945b838610610ad3575050505001019038808080610aa1565b805485870183015294019385908201610abc565b9294505050602093945060ff191683830152151560051b01019038808080610aa1565b60a0810190811067ffffffffffffffff8211176103c857604052565b90601f8019910116810190811067ffffffffffffffff8211176103c857604052565b67ffffffffffffffff81116103c857601f01601f191660200190565b81601f8201121561013d57803590610b7b82610b48565b92610b896040519485610b26565b8284526020838301011161013d57816000926020809301838601378301015290565b67ffffffffffffffff81116103c85760051b60200190565b8054821015610a24576000526005602060002091020190600090565b818110610bea575050565b60008155600101610bdf565b919091825167ffffffffffffffff81116103c857610c148254610a3a565b601f8111610cbe575b50602080601f8311600114610c5a575081929394600092610c4f575b50508160011b916000199060031b1c1916179055565b015190503880610c39565b90601f198316958460005282600020926000905b888210610ca657505083600195969710610c8d575b505050811b019055565b015160001960f88460031b161c19169055388080610c83565b80600185968294968601518155019501930190610c6e565b610ceb90836000526020600020601f840160051c81019160208510610cf1575b601f0160051c0190610bdf565b38610c1d565b9091508190610cde565b600019811461098f5760010190565b60405190816000825492610d1d84610a3a565b906001948581169081600014610d7e5750600114610d44575b505060209281520301902090565b60009081526020808220959350905b828110610d6a575050602093508201909238610d36565b855487820152948301948694508101610d53565b60ff1916855250508015150282019050602038610d36565b8051821015610a245760209160051b01019056fea26469706673582212201e6216ddf557041060d2364425a5719e48bfdc03cb263e1de843c20f91838e5664736f6c63430008130033",
  "immutableReferences": {},
  "source": "// SPDX-License-Identifier: MIT\r\npragma solidity ^0.8.19;\r\n\r\nimport \"./IStudentRegistry.sol\";\r\n\r\ncontract InterviewShare {\r\n    IStudentRegistry public studentRegistry;\r\n    \r\n    struct Interview {\r\n        string companyName;\r\n        string[] questions;\r\n        string position;\r\n        uint256 timestamp;\r\n        address sharedBy;\r\n    }\r\n    \r\n    mapping(string => Interview[]) public companyInterviews;\r\n    string[] public companyList;\r\n    \r\n    event InterviewShared(address indexed sharer, string companyName);\r\n    \r\n    modifier onlyFourthYear() {\r\n        (, , uint256 year) = studentRegistry.getStudentInfo(msg.sender);\r\n        require(year == 4, \"Only 4th year students can share interviews\");\r\n        _;\r\n    }\r\n    \r\n    constructor(address _studentRegistry) {\r\n        studentRegistry = IStudentRegistry(_studentRegistry);\r\n    }\r\n    \r\n    function shareInterview(\r\n        string memory _companyName,\r\n        string[] memory _questions,\r\n        string memory _position\r\n    ) public onlyFourthYear {\r\n        require(_questions.length > 0, \"Must provide at least one question\");\r\n        \r\n        Interview memory interview = Interview({\r\n            companyName: _companyName,\r\n            questions: _questions,\r\n            position: _position,\r\n            timestamp: block.timestamp,\r\n            sharedBy: msg.sender\r\n        });\r\n        \r\n        companyInterviews[_companyName].push(interview);\r\n        \r\n        // Add company to list if not already present\r\n        bool companyExists = false;\r\n        for (uint256 i = 0; i < companyList.length; i++) {\r\n            if (keccak256(bytes(companyList[i])) == keccak256(bytes(_companyName))) {\r\n                companyExists = true;\r\n                break;\r\n            }\r\n        }\r\n        if (!companyExists) {\r\n            companyList.push(_companyName);\r\n        }\r\n        \r\n        emit InterviewShared(msg.sender, _companyName);\r\n    }\r\n\r\n    // Function to fetch every interview question for all companies\r\n    function getAllInterviews() public view returns (Interview[] memory) {\r\n        uint256 totalInterviews = 0;\r\n        for (uint256 i = 0; i < companyList.length; i++) {\r\n            totalInterviews += companyInterviews[companyList[i]].length;\r\n        }\r\n\r\n        Interview[] memory interviews = new Interview[](totalInterviews);\r\n        uint256 index = 0;\r\n        for (uint256 i = 0; i < companyList.length; i++) {\r\n            for (uint256 j = 0; j < companyInterviews[companyList[i]].length; j++) {\r\n                interviews[index] = companyInterviews[companyList[i]][j];\r\n                index++;\r\n            }\r\n        }\r\n        return interviews;\r\n    }\r\n}",
  "sourcePath": "C:\\Assignments\\CS4207\\CS4207-Blockbusters-FinalProject\\contracts\\InterviewShare.sol",
  "compiler": {
    "name": "solc",
    "version": "0.8.19+commit.7dd6d404.Emscripten.clang"
  },
  "schemaVersion": "3.4.16",
  "updatedAt": "2024-12-08T11:32:06.277Z",
  "networkType": "ethereum",
  "devdoc": {
    "kind": "dev",
    "methods": {},
    "version": 1
  },
  "userdoc": {
    "kind": "user",
    "methods": {},
    "version": 1
  }
}