{
  "contractName": "InterviewShare",
  "abi": [
    {
      "inputs": [
        {
          "internalType": "address",
          "name": "_studentRegistry",
          "type": "address"
        }
      ],
      "stateMutability": "nonpayable",
      "type": "constructor"
    },
    {
      "anonymous": false,
      "inputs": [
        {
          "indexed": true,
          "internalType": "address",
          "name": "sharer",
          "type": "address"
        },
        {
          "indexed": false,
          "internalType": "string",
          "name": "companyName",
          "type": "string"
        }
      ],
      "name": "InterviewShared",
      "type": "event"
    },
    {
      "inputs": [
        {
          "internalType": "string",
          "name": "",
          "type": "string"
        },
        {
          "internalType": "uint256",
          "name": "",
          "type": "uint256"
        }
      ],
      "name": "companyInterviews",
      "outputs": [
        {
          "internalType": "string",
          "name": "companyName",
          "type": "string"
        },
        {
          "internalType": "string",
          "name": "position",
          "type": "string"
        },
        {
          "internalType": "uint256",
          "name": "timestamp",
          "type": "uint256"
        },
        {
          "internalType": "address",
          "name": "sharedBy",
          "type": "address"
        }
      ],
      "stateMutability": "view",
      "type": "function"
    },
    {
      "inputs": [],
      "name": "studentRegistry",
      "outputs": [
        {
          "internalType": "contract IStudentRegistry",
          "name": "",
          "type": "address"
        }
      ],
      "stateMutability": "view",
      "type": "function"
    },
    {
      "inputs": [
        {
          "internalType": "string",
          "name": "_companyName",
          "type": "string"
        },
        {
          "internalType": "string[]",
          "name": "_questions",
          "type": "string[]"
        },
        {
          "internalType": "string",
          "name": "_position",
          "type": "string"
        }
      ],
      "name": "shareInterview",
      "outputs": [],
      "stateMutability": "nonpayable",
      "type": "function"
    }
  ],
  "bytecode": "0x60803461007457601f610b5438819003918201601f19168301916001600160401b038311848410176100795780849260209460405283398101031261007457516001600160a01b0381169081900361007457600080546001600160a01b031916919091179055604051610ac490816100908239f35b600080fd5b634e487b7160e01b600052604160045260246000fdfe608080604052600436101561001357600080fd5b60003560e01c90816392c16fb51461087657508063e1ca42bd146101105763e9ffeaab1461004057600080fd5b3461010b57604036600319011261010b576004356001600160401b03811161010b576100709036906004016108d6565b61008c602060243592816040519382858094519384920161091d565b81016001815203019020805482101561010b576100ee916100ac91610940565b506100b6816109ac565b906100c3600282016109ac565b6100fc600383015492600460018060a01b039101541691604051958695608087526080870190610a52565b908582036020870152610a52565b91604084015260608301520390f35b600080fd5b3461010b57606036600319011261010b576004356001600160401b03811161010b576101409036906004016108d6565b602435906001600160401b03821161010b573660238301121561010b578160040135916001600160401b0383116104b3578260051b9060405193610187602084018661089a565b8452602460208501928201019036821161010b5760248101925b8284106108475785856044356001600160401b03811161010b576101c99036906004016108d6565b600080546040516312e0b2bb60e21b81523360048201529190829060249082906001600160a01b03165afa801561083b576000906107bb575b600491500361076257825115610712576040519260a084018481106001600160401b038211176104b35760405282845260208401526040830152426060830152336080830152604051602081835161025d818385880161091d565b810160018152030190208054600160401b8110156104b35761028491600182018155610940565b9190916106fc5782519283516001600160401b0381116104b3576102a88454610972565b601f81116106ca575b506020601f8211600114610661578192939495600092610656575b50508160011b916000199060031b1c19161783555b6020810151805190600160401b82116104b35760018501548260018701558083106105de575b5060200190600185016000526020600020916000905b8282106104c9575050505060408101519283516001600160401b0381116104b35761034b6002830154610972565b601f8111610473575b506020601f821160011461040057819060049495966000926103f5575b50508160011b916000199060031b1c19161760028201555b606083015160038201550190608060018060a01b03910151166bffffffffffffffffffffffff60a01b8254161790557f549731d9c7dbd9d14a37b75ae42807d2fe6da053f021ac7a754846d375f34dd460405160208152806103f033946020830190610a52565b0390a2005b015190508680610371565b6002830160005260206000209560005b601f198416811061045b57509582916004959697600194601f19811610610442575b505050811b016002820155610389565b015160001960f88460031b161c19169055868080610432565b82820151885560019097019660209283019201610410565b6104a390600284016000526020600020601f840160051c810191602085106104a9575b601f0160051c0190610a77565b85610354565b9091508190610496565b634e487b7160e01b600052604160045260246000fd5b80518051906001600160401b0382116104b3576104e68654610972565b601f81116105ac575b50602090601f831160011461053c579282600194936020938695600092610531575b5050600019600383901b1c191690841b1787555b0194019101909261031d565b015190508c80610511565b908660005260206000209160005b601f1985168110610594575083602093600196938796938794601f1981161061057b575b505050811b018755610525565b015160001960f88460031b161c191690558c808061056e565b9192602060018192868501518155019401920161054a565b6105d890876000526020600020601f850160051c810191602086106104a957601f0160051c0190610a77565b896104ef565b600186016000526020600020908382015b81830181106105ff575050610307565b8061060c60019254610972565b80610619575b50016105ef565b601f8111831461062f5750600081555b89610612565b60009082825261064d601f60208420920160051c8201858301610a77565b81835555610629565b0151905085806102cc565b8460005260206000209060005b601f19841681106106b2575060019394959683601f19811610610699575b505050811b0183556102e1565b015160001960f88460031b161c1916905585808061068c565b9091602060018192858b01518155019301910161066e565b6106f690856000526020600020601f840160051c810191602085106104a957601f0160051c0190610a77565b856102b1565b634e487b7160e01b600052600060045260246000fd5b60405162461bcd60e51b815260206004820152602260248201527f4d7573742070726f76696465206174206c65617374206f6e652071756573746960448201526137b760f11b6064820152608490fd5b60405162461bcd60e51b815260206004820152602b60248201527f4f6e6c792034746820796561722073747564656e74732063616e20736861726560448201526a20696e746572766965777360a81b6064820152608490fd5b503d806000833e6107cc818361089a565b81019060608183031261010b5780516001600160401b03811161010b5781019082601f8301121561010b57815192610803846108bb565b90610811604051928361089a565b8482526020858501011161010b576004936040936020806108349401910161091d565b0151610202565b6040513d6000823e3d90fd5b83356001600160401b03811161010b5760209161086b8392602436918701016108d6565b8152019301926101a1565b3461010b57600036600319011261010b576000546001600160a01b03168152602090f35b90601f801991011681019081106001600160401b038211176104b357604052565b6001600160401b0381116104b357601f01601f191660200190565b81601f8201121561010b578035906108ed826108bb565b926108fb604051948561089a565b8284526020838301011161010b57816000926020809301838601378301015290565b60005b8381106109305750506000910152565b8181015183820152602001610920565b805482101561095c576000526005602060002091020190600090565b634e487b7160e01b600052603260045260246000fd5b90600182811c921680156109a2575b602083101461098c57565b634e487b7160e01b600052602260045260246000fd5b91607f1691610981565b90604051918260008254926109c084610972565b908184526001948581169081600014610a2f57506001146109ec575b50506109ea9250038361089a565b565b9093915060005260209081600020936000915b818310610a175750506109ea935082010138806109dc565b855488840185015294850194879450918301916109ff565b9150506109ea94506020925060ff191682840152151560051b82010138806109dc565b90602091610a6b8151809281855285808601910161091d565b601f01601f1916010190565b818110610a82575050565b60008155600101610a7756fea26469706673582212205a68e7f17fe18c4b8e92f763f08ea5d50d4c0f1e9963cdaacc8da2cff869577664736f6c63430008130033",
  "immutableReferences": {},
  "source": "// SPDX-License-Identifier: MIT\r\npragma solidity ^0.8.19;\r\n\r\nimport \"./IStudentRegistry.sol\";\r\n\r\ncontract InterviewShare {\r\n    IStudentRegistry public studentRegistry;\r\n    \r\n    struct Interview {\r\n        string companyName;\r\n        string[] questions;\r\n        string position;\r\n        uint256 timestamp;\r\n        address sharedBy;\r\n    }\r\n    \r\n    mapping(string => Interview[]) public companyInterviews;\r\n    \r\n    event InterviewShared(address indexed sharer, string companyName);\r\n    \r\n    modifier onlyFourthYear() {\r\n        (, , uint256 year) = studentRegistry.getStudentInfo(msg.sender);\r\n        require(year == 4, \"Only 4th year students can share interviews\");\r\n        _;\r\n    }\r\n    \r\n    constructor(address _studentRegistry) {\r\n        studentRegistry = IStudentRegistry(_studentRegistry);\r\n    }\r\n    \r\n    function shareInterview(\r\n        string memory _companyName,\r\n        string[] memory _questions,\r\n        string memory _position\r\n    ) public onlyFourthYear {\r\n        require(_questions.length > 0, \"Must provide at least one question\");\r\n        \r\n        Interview memory interview = Interview({\r\n            companyName: _companyName,\r\n            questions: _questions,\r\n            position: _position,\r\n            timestamp: block.timestamp,\r\n            sharedBy: msg.sender\r\n        });\r\n        \r\n        companyInterviews[_companyName].push(interview);\r\n        emit InterviewShared(msg.sender, _companyName);\r\n    }\r\n}",
  "sourcePath": "C:\\Assignments\\CS4207\\CS4207-Blockbusters-FinalProject\\contracts\\InterviewShare.sol",
  "compiler": {
    "name": "solc",
    "version": "0.8.19+commit.7dd6d404.Emscripten.clang"
  },
  "schemaVersion": "3.4.16",
  "updatedAt": "2024-12-08T08:58:42.416Z",
  "devdoc": {
    "kind": "dev",
    "methods": {},
    "version": 1
  },
  "userdoc": {
    "kind": "user",
    "methods": {},
    "version": 1
  }
}