{
  "contractName": "MentorshipProgram",
  "abi": [
    {
      "inputs": [
        {
          "internalType": "address",
          "name": "_studentRegistry",
          "type": "address"
        }
      ],
      "stateMutability": "nonpayable",
      "type": "constructor"
    },
    {
      "anonymous": false,
      "inputs": [
        {
          "indexed": true,
          "internalType": "address",
          "name": "mentor",
          "type": "address"
        },
        {
          "indexed": true,
          "internalType": "address",
          "name": "mentee",
          "type": "address"
        }
      ],
      "name": "MenteeAdded",
      "type": "event"
    },
    {
      "anonymous": false,
      "inputs": [
        {
          "indexed": true,
          "internalType": "address",
          "name": "mentor",
          "type": "address"
        },
        {
          "indexed": false,
          "internalType": "string",
          "name": "subject",
          "type": "string"
        }
      ],
      "name": "MentorRegistered",
      "type": "event"
    },
    {
      "inputs": [
        {
          "internalType": "address",
          "name": "",
          "type": "address"
        }
      ],
      "name": "menteeToMentor",
      "outputs": [
        {
          "internalType": "address",
          "name": "",
          "type": "address"
        }
      ],
      "stateMutability": "view",
      "type": "function",
      "constant": true
    },
    {
      "inputs": [
        {
          "internalType": "address",
          "name": "",
          "type": "address"
        }
      ],
      "name": "mentors",
      "outputs": [
        {
          "internalType": "address",
          "name": "mentorAddress",
          "type": "address"
        },
        {
          "internalType": "string",
          "name": "subject",
          "type": "string"
        }
      ],
      "stateMutability": "view",
      "type": "function",
      "constant": true
    },
    {
      "inputs": [],
      "name": "studentRegistry",
      "outputs": [
        {
          "internalType": "contract IStudentRegistry",
          "name": "",
          "type": "address"
        }
      ],
      "stateMutability": "view",
      "type": "function",
      "constant": true
    },
    {
      "inputs": [
        {
          "internalType": "string[]",
          "name": "_skills",
          "type": "string[]"
        },
        {
          "internalType": "string",
          "name": "_subject",
          "type": "string"
        }
      ],
      "name": "registerAsMentor",
      "outputs": [],
      "stateMutability": "nonpayable",
      "type": "function"
    },
    {
      "inputs": [
        {
          "internalType": "address",
          "name": "_mentee",
          "type": "address"
        }
      ],
      "name": "addMentee",
      "outputs": [],
      "stateMutability": "nonpayable",
      "type": "function"
    },
    {
      "inputs": [
        {
          "internalType": "address",
          "name": "_mentor",
          "type": "address"
        }
      ],
      "name": "getMentorDetails",
      "outputs": [
        {
          "internalType": "address",
          "name": "mentorAddress",
          "type": "address"
        },
        {
          "internalType": "string[]",
          "name": "skills",
          "type": "string[]"
        },
        {
          "internalType": "string",
          "name": "subject",
          "type": "string"
        },
        {
          "internalType": "address[]",
          "name": "mentees",
          "type": "address[]"
        }
      ],
      "stateMutability": "view",
      "type": "function",
      "constant": true
    }
  ],
  "bytecode": "0x60803461007457601f610ebb38819003918201601f19168301916001600160401b038311848410176100795780849260209460405283398101031261007457516001600160a01b0381169081900361007457600080546001600160a01b031916919091179055604051610e2b90816100908239f35b600080fd5b634e487b7160e01b600052604160045260246000fdfe6080604052600436101561001257600080fd5b60003560e01c80634b6773481461056f57806376a153a31461039757806392c16fb51461036e578063951984d814610108578063a2ed7596146100c85763eed4ea8f1461005e57600080fd5b346100c35760203660031901126100c3576001600160a01b03600435818116908190036100c35760005260016020526100a260026040600020928354169201610cca565b906100bf6040519283928352604060208401526040830190610c6b565b0390f35b600080fd5b346100c35760203660031901126100c3576004356001600160a01b03818116918290036100c3576020916000526002825260406000205416604051908152f35b346100c3576020806003193601126100c3576004356001600160a01b0381811692918390036100c357336000526001825280604060002054161561032957826000526002825280604060002054166102d5576000602491815416604051928380926312e0b2bb60e21b82528760048301525afa80156102c9576004916000916102a3575b50101561024b57336000526001815260036040600020018054600160401b811015610235576001810180835581101561021f576002916000528260002001916bffffffffffffffffffffffff60a01b92848482541617905583600052526040600020903390825416179055337f9dc07c06b4b3ebed3e248b5f0f359450d9afa215db55db98fcbbdac6767c90b1600080a3005b634e487b7160e01b600052603260045260246000fd5b634e487b7160e01b600052604160045260246000fd5b6084906040519062461bcd60e51b82526004820152602b60248201527f4f6e6c792073747564656e74732062656c6f772034746820796561722063616e60448201526a206265206d656e7465657360a81b6064820152fd5b6102c091503d806000833e6102b88183610bab565b810190610d70565b9150508461018c565b6040513d6000823e3d90fd5b60405162461bcd60e51b815260048101839052602660248201527f4d656e74656520697320616c72656164792061737369676e656420746f20612060448201526536b2b73a37b960d11b6064820152608490fd5b60405162461bcd60e51b815260048101839052601f60248201527f596f7520617265206e6f7420612072656769737465726564206d656e746f72006044820152606490fd5b346100c35760003660031901126100c3576000546040516001600160a01b039091168152602090f35b346100c3576020806003193601126100c3576001600160a01b03600435818116908190036100c357829060005260018082526040600020926040516103db81610b8f565b8185541681528285019384546103f081610bcd565b956103fe6040519788610bab565b81875260009081528281208388015b8383106105445750505050808201948552600361042c60028801610cca565b9660408401978852019560405192838389549182815201908199600052846000209060005b81811061052f57505050906104698587930386610bab565b8460608201525116955190516040519660808801908852608084890152825180915260a08801908460a08260051b8b01019401916000905b8282106104f85750505050816104bf918885940360408a0152610c6b565b92868403606088015251928381520195926000905b8382106104e15786880387f35b8451811688529682019693820193908501906104d4565b9091929498868061051a839e9c8e609f9d9b9c9d199082030186528951610c6b565b9701920192019092919a989a979695976104a1565b82548916845292860192918901918901610451565b90878086819c9a959461055a859b999a9b610cca565b8152019201920192509896989594939561040d565b346100c35760403660031901126100c35760043567ffffffffffffffff81116100c357366023820112156100c35780600401356105ab81610bcd565b916105b96040519384610bab565b8183526024602084019260051b820101903682116100c35760248101925b828410610b5f578460243567ffffffffffffffff81116100c3576105ff903690600401610c01565b600080546040516312e0b2bb60e21b81523360048201529293929190829060249082906001600160a01b03165afa80156102c957600491600091610b41575b5003610ae557336000908152600160205260409020546001600160a01b0316610a9157604051906020820182811067ffffffffffffffff82111761023557604052600082526040519161069083610b8f565b33835260208301918252836040840152606083015233600052600160205260406000209060018060a01b038351166bffffffffffffffffffffffff60a01b83541617825551805190600160401b8211610235576001830154826001850155808310610a18575b5060200190600183016000526020600020916000905b8282106108f95750505050604082015180519067ffffffffffffffff82116102355761073b6002840154610c90565b601f81116108b9575b50602090601f83116001146108455791806060949260039460009261083a575b50508160011b9160001990851b1c19161760028201555b019101519081519167ffffffffffffffff831161023557600160401b831161023557602090825484845580851061081d575b500190600052602060002060005b83811061080057847fa8930a4389234e80ddf6880352c7b22ba4c29b2e0a9543ba94bc4f54b6aede6160405160208152806107fb33946020830190610c6b565b0390a2005b82516001600160a01b0316818301556020909201916001016107bb565b610834908460005285846000209182019101610dde565b856107ad565b015190508780610764565b906002840160005260206000209160005b601f19851681106108a15750926060949260019260039583601f19811610610889575b505050811b01600282015561077b565b015160001983871b60f8161c19169055878080610879565b91926020600181928685015181550194019201610856565b6108e990600285016000526020600020601f850160051c810191602086106108ef575b601f0160051c0190610dde565b85610744565b90915081906108dc565b805180519067ffffffffffffffff8211610235576109178654610c90565b90601f918281116109de575b50602091831160011461096e579282600194936020938695600092610963575b5050600019600383901b1c191690841b1787555b0194019101909261070c565b015190508c80610943565b908660005260206000209160005b601f19851681106109c6575083602093600196938796938794601f198116106109ad575b505050811b018755610957565b015160001960f88460031b161c191690558c80806109a0565b9192602060018192868501518155019401920161097c565b610a09908860005260206000208480870160051c82019260208810610a0f575b0160051c0190610dde565b8a610923565b925081926109fe565b600184016000526020600020908382015b8183018110610a395750506106f6565b80610a4660019254610c90565b80610a53575b5001610a29565b601f908181118414610a6c575050600081555b89610a4c565b610a8860009284845260208420920160051c8201858301610dde565b81835555610a66565b60405162461bcd60e51b815260206004820152602660248201527f596f752061726520616c7265616479207265676973746572656420617320612060448201526536b2b73a37b960d11b6064820152608490fd5b60405162461bcd60e51b815260206004820152602e60248201527f4f6e6c792034746820796561722073747564656e74732063616e20726567697360448201526d746572206173206d656e746f727360901b6064820152608490fd5b610b5691503d806000833e6102b88183610bab565b9150508461063e565b833567ffffffffffffffff81116100c357602091610b84839260243691870101610c01565b8152019301926105d7565b6080810190811067ffffffffffffffff82111761023557604052565b90601f8019910116810190811067ffffffffffffffff82111761023557604052565b67ffffffffffffffff81116102355760051b60200190565b67ffffffffffffffff811161023557601f01601f191660200190565b81601f820112156100c357803590610c1882610be5565b92610c266040519485610bab565b828452602083830101116100c357816000926020809301838601378301015290565b60005b838110610c5b5750506000910152565b8181015183820152602001610c4b565b90602091610c8481518092818552858086019101610c48565b601f01601f1916010190565b90600182811c92168015610cc0575b6020831014610caa57565b634e487b7160e01b600052602260045260246000fd5b91607f1691610c9f565b9060405191826000825492610cde84610c90565b908184526001948581169081600014610d4d5750600114610d0a575b5050610d0892500383610bab565b565b9093915060005260209081600020936000915b818310610d35575050610d0893508201013880610cfa565b85548884018501529485019487945091830191610d1d565b915050610d0894506020925060ff191682840152151560051b8201013880610cfa565b906060828203126100c357815167ffffffffffffffff81116100c357820181601f820112156100c3578051610da481610be5565b92610db26040519485610bab565b818452602082840101116100c357610dd09160208085019101610c48565b916040602083015192015190565b818110610de9575050565b60008155600101610dde56fea264697066735822122074eb4f5093b7954e89a692d95d39f1ce670eaf80fa03ea0448a91023270dc47e64736f6c63430008130033",
  "immutableReferences": {},
  "source": "\r\n// SPDX-License-Identifier: MIT\r\npragma solidity ^0.8.19;\r\n//Importing IStudentRegistry to interact with student registry and call functions\r\nimport \"./IStudentRegistry.sol\";\r\n\r\n//defining new mentorship program contract\r\n//containing all data, functions and events for the functionailty\r\ncontract MentorshipProgram {\r\n    //Declaring a IStudentRegistry contract\r\n    IStudentRegistry public studentRegistry;\r\n    //Defining structure of mentor data\r\n    struct Mentor {\r\n        //Stores address of mentor\r\n        address mentorAddress;\r\n        //stores array of mentors skills\r\n        string[] skills;\r\n        //stores the subject of their mentpr group\r\n        string subject;\r\n        //array of the addresses of all the students assigned to the mentor\r\n        address[] mentees;\r\n    }\r\n    //mapping address to mentor\r\n    mapping(address => Mentor) public mentors;\r\n    //mapping student(or mentee) to the mentors address\r\n    mapping(address => address) public menteeToMentor;\r\n\r\n    //defining 2 events\r\n    //Logs when mentor is registered\r\n    event MentorRegistered(address indexed mentor, string subject);\r\n    //Loggs when mentee is assigned a mentor\r\n    event MenteeAdded(address indexed mentor, address indexed mentee);\r\n\r\n    //ensures only 4th years can register as mentors\r\n    modifier onlyFourthYear() {\r\n        (, , uint256 year) = studentRegistry.getStudentInfo(msg.sender);\r\n        require(year == 4, \"Only 4th year students can register as mentors\");\r\n        _;\r\n    }\r\n    //ensures non registered mentors can't preform mentor functions\r\n    modifier onlyRegisteredMentor() {\r\n        require(\r\n            mentors[msg.sender].mentorAddress != address(0),\r\n            \"You are not a registered mentor\"\r\n        );\r\n        _;\r\n    }\r\n\r\n    //Initialising the contract with address of the student regiostry contract\r\n    constructor(address _studentRegistry) {\r\n        studentRegistry = IStudentRegistry(_studentRegistry);\r\n    }\r\n\r\n    //function that registers a student as a mentor checking if they are a 4th\r\n    //year and they are not already a mentor\r\n    function registerAsMentor(string[] memory _skills, string memory _subject)\r\n        public\r\n        onlyFourthYear\r\n    {\r\n        //checking if they are already a mentor\r\n        require(\r\n            mentors[msg.sender].mentorAddress == address(0),\r\n            \"You are already registered as a mentor\"\r\n        );\r\n        //creates new mentor struct and stores values\r\n        mentors[msg.sender] = Mentor({\r\n            mentorAddress: msg.sender,\r\n            skills: _skills,\r\n            subject: _subject,\r\n            mentees: new address[](0)\r\n        });\r\n        //logs a new mentor being registered\r\n        emit MentorRegistered(msg.sender, _subject);\r\n    }\r\n\r\n    //function to add mentee to a mentors group, ensures only registered mentors can use this \r\n    function addMentee(address _mentee) public onlyRegisteredMentor {\r\n        //ensureing student is not already assigned to this mentor\r\n        require(\r\n            menteeToMentor[_mentee] == address(0),\r\n            \"Mentee is already assigned to a mentor\"\r\n        );\r\n        //gets the students info and ensures the mentee is below 4th year\r\n        (, , uint256 menteeYear) = studentRegistry.getStudentInfo(_mentee);\r\n        require(\r\n            menteeYear < 4,\r\n            \"Only students below 4th year can be mentees\"\r\n        );\r\n        //addes mentee to the mentors list and maps the mentees addres to mentor\r\n        mentors[msg.sender].mentees.push(_mentee);\r\n        menteeToMentor[_mentee] = msg.sender;\r\n        //log new mentee being added to mentor group\r\n        emit MenteeAdded(msg.sender, _mentee);\r\n    }\r\n\r\n    //Getter for the mentors data\r\n    function getMentorDetails(address _mentor)\r\n        public\r\n        view\r\n        returns (\r\n            address mentorAddress,\r\n            string[] memory skills,\r\n            string memory subject,\r\n            address[] memory mentees\r\n        )\r\n    {\r\n        Mentor memory mentor = mentors[_mentor];\r\n        return (mentor.mentorAddress, mentor.skills, mentor.subject, mentor.mentees);\r\n    }\r\n}\r\n\r\n",
  "sourcePath": "C:\\Assignments\\CS4207\\CS4207-Blockbusters-FinalProject\\contracts\\Mentor.sol",
  "compiler": {
    "name": "solc",
    "version": "0.8.19+commit.7dd6d404.Emscripten.clang"
  },
  "schemaVersion": "3.4.16",
  "updatedAt": "2024-12-06T12:33:10.629Z",
  "networkType": "ethereum",
  "devdoc": {
    "kind": "dev",
    "methods": {},
    "version": 1
  },
  "userdoc": {
    "kind": "user",
    "methods": {},
    "version": 1
  }
}