{
  "contractName": "MentorshipProgram",
  "abi": [
    {
      "inputs": [
        {
          "internalType": "address",
          "name": "_studentRegistry",
          "type": "address"
        }
      ],
      "stateMutability": "nonpayable",
      "type": "constructor"
    },
    {
      "anonymous": false,
      "inputs": [
        {
          "indexed": true,
          "internalType": "address",
          "name": "mentor",
          "type": "address"
        },
        {
          "indexed": true,
          "internalType": "address",
          "name": "mentee",
          "type": "address"
        }
      ],
      "name": "MenteeAdded",
      "type": "event"
    },
    {
      "anonymous": false,
      "inputs": [
        {
          "indexed": true,
          "internalType": "address",
          "name": "mentor",
          "type": "address"
        },
        {
          "indexed": false,
          "internalType": "string",
          "name": "subject",
          "type": "string"
        }
      ],
      "name": "MentorRegistered",
      "type": "event"
    },
    {
      "inputs": [
        {
          "internalType": "address",
          "name": "",
          "type": "address"
        }
      ],
      "name": "menteeToMentor",
      "outputs": [
        {
          "internalType": "address",
          "name": "",
          "type": "address"
        }
      ],
      "stateMutability": "view",
      "type": "function",
      "constant": true
    },
    {
      "inputs": [
        {
          "internalType": "address",
          "name": "",
          "type": "address"
        }
      ],
      "name": "mentors",
      "outputs": [
        {
          "internalType": "address",
          "name": "mentorAddress",
          "type": "address"
        },
        {
          "internalType": "string",
          "name": "subject",
          "type": "string"
        }
      ],
      "stateMutability": "view",
      "type": "function",
      "constant": true
    },
    {
      "inputs": [],
      "name": "studentRegistry",
      "outputs": [
        {
          "internalType": "contract IStudentRegistry",
          "name": "",
          "type": "address"
        }
      ],
      "stateMutability": "view",
      "type": "function",
      "constant": true
    },
    {
      "inputs": [
        {
          "internalType": "string[]",
          "name": "_skills",
          "type": "string[]"
        },
        {
          "internalType": "string",
          "name": "_subject",
          "type": "string"
        }
      ],
      "name": "registerAsMentor",
      "outputs": [],
      "stateMutability": "nonpayable",
      "type": "function"
    },
    {
      "inputs": [
        {
          "internalType": "address",
          "name": "_mentee",
          "type": "address"
        }
      ],
      "name": "addMentee",
      "outputs": [],
      "stateMutability": "payable",
      "type": "function",
      "payable": true
    },
    {
      "inputs": [
        {
          "internalType": "address",
          "name": "_mentor",
          "type": "address"
        }
      ],
      "name": "getMentorDetails",
      "outputs": [
        {
          "internalType": "address",
          "name": "mentorAddress",
          "type": "address"
        },
        {
          "internalType": "string[]",
          "name": "skills",
          "type": "string[]"
        },
        {
          "internalType": "string",
          "name": "subject",
          "type": "string"
        },
        {
          "internalType": "address[]",
          "name": "mentees",
          "type": "address[]"
        }
      ],
      "stateMutability": "view",
      "type": "function",
      "constant": true
    }
  ],
  "bytecode": "0x60803461007457601f610efe38819003918201601f19168301916001600160401b038311848410176100795780849260209460405283398101031261007457516001600160a01b0381169081900361007457600080546001600160a01b031916919091179055604051610e6e90816100908239f35b600080fd5b634e487b7160e01b600052604160045260246000fdfe6080604052600436101561001257600080fd5b60003560e01c80634b677348146105b257806376a153a3146103da57806392c16fb5146103b1578063951984d814610108578063a2ed7596146100c85763eed4ea8f1461005e57600080fd5b346100c35760203660031901126100c3576001600160a01b03600435818116908190036100c35760005260016020526100a260026040600020928354169201610d0d565b906100bf6040519283928352604060208401526040830190610cae565b0390f35b600080fd5b346100c35760203660031901126100c3576004356001600160a01b03818116918290036100c3576020916000526002825260406000205416604051908152f35b6020806003193601126100c3576004356001600160a01b03818116918290036100c357336000526001835280604060002054161561036c5781600052600283528060406000205416610318576000602491815416604051928380926312e0b2bb60e21b82528660048301525afa8015610231576004916000916102f2575b5010156102995733600052600182526003604060002001805490600160401b821015610283576001820180825582101561026d5760005282600020016bffffffffffffffffffffffff60a01b9082828254161790558160005260028352604060002090339082541617905560405190337f9dc07c06b4b3ebed3e248b5f0f359450d9afa215db55db98fcbbdac6767c90b1600080a3341561023d576000808080343382f11561023157005b6040513d6000823e3d90fd5b60649162461bcd60e51b82526004820152600d60248201526c139bc8199d5b991cc81cd95b9d609a1b6044820152fd5b634e487b7160e01b600052603260045260246000fd5b634e487b7160e01b600052604160045260246000fd5b60405162461bcd60e51b815260048101839052602b60248201527f4f6e6c792073747564656e74732062656c6f772034746820796561722063616e60448201526a206265206d656e7465657360a81b6064820152608490fd5b61030f91503d806000833e6103078183610bee565b810190610db3565b91505084610186565b60405162461bcd60e51b815260048101849052602660248201527f4d656e74656520697320616c72656164792061737369676e656420746f20612060448201526536b2b73a37b960d11b6064820152608490fd5b60405162461bcd60e51b815260048101849052601f60248201527f596f7520617265206e6f7420612072656769737465726564206d656e746f72006044820152606490fd5b346100c35760003660031901126100c3576000546040516001600160a01b039091168152602090f35b346100c3576020806003193601126100c3576001600160a01b03600435818116908190036100c3578290600052600180825260406000209260405161041e81610bd2565b81855416815282850193845461043381610c10565b956104416040519788610bee565b81875260009081528281208388015b8383106105875750505050808201948552600361046f60028801610d0d565b9660408401978852019560405192838389549182815201908199600052846000209060005b81811061057257505050906104ac8587930386610bee565b8460608201525116955190516040519660808801908852608084890152825180915260a08801908460a08260051b8b01019401916000905b82821061053b575050505081610502918885940360408a0152610cae565b92868403606088015251928381520195926000905b8382106105245786880387f35b845181168852968201969382019390850190610517565b9091929498868061055d839e9c8e609f9d9b9c9d199082030186528951610cae565b9701920192019092919a989a979695976104e4565b82548916845292860192918901918901610494565b90878086819c9a959461059d859b999a9b610d0d565b81520192019201925098969895949395610450565b346100c35760403660031901126100c35760043567ffffffffffffffff81116100c357366023820112156100c35780600401356105ee81610c10565b916105fc6040519384610bee565b8183526024602084019260051b820101903682116100c35760248101925b828410610ba2578460243567ffffffffffffffff81116100c357610642903690600401610c44565b600080546040516312e0b2bb60e21b81523360048201529293929190829060249082906001600160a01b03165afa801561023157600491600091610b84575b5003610b2857336000908152600160205260409020546001600160a01b0316610ad457604051906020820182811067ffffffffffffffff8211176102835760405260008252604051916106d383610bd2565b33835260208301918252836040840152606083015233600052600160205260406000209060018060a01b038351166bffffffffffffffffffffffff60a01b83541617825551805190600160401b8211610283576001830154826001850155808310610a5b575b5060200190600183016000526020600020916000905b82821061093c5750505050604082015180519067ffffffffffffffff82116102835761077e6002840154610cd3565b601f81116108fc575b50602090601f83116001146108885791806060949260039460009261087d575b50508160011b9160001990851b1c19161760028201555b019101519081519167ffffffffffffffff831161028357600160401b8311610283576020908254848455808510610860575b500190600052602060002060005b83811061084357847fa8930a4389234e80ddf6880352c7b22ba4c29b2e0a9543ba94bc4f54b6aede61604051602081528061083e33946020830190610cae565b0390a2005b82516001600160a01b0316818301556020909201916001016107fe565b610877908460005285846000209182019101610e21565b856107f0565b0151905087806107a7565b906002840160005260206000209160005b601f19851681106108e45750926060949260019260039583601f198116106108cc575b505050811b0160028201556107be565b015160001983871b60f8161c191690558780806108bc565b91926020600181928685015181550194019201610899565b61092c90600285016000526020600020601f850160051c81019160208610610932575b601f0160051c0190610e21565b85610787565b909150819061091f565b805180519067ffffffffffffffff82116102835761095a8654610cd3565b90601f91828111610a21575b5060209183116001146109b15792826001949360209386956000926109a6575b5050600019600383901b1c191690841b1787555b0194019101909261074f565b015190508c80610986565b908660005260206000209160005b601f1985168110610a09575083602093600196938796938794601f198116106109f0575b505050811b01875561099a565b015160001960f88460031b161c191690558c80806109e3565b919260206001819286850151815501940192016109bf565b610a4c908860005260206000208480870160051c82019260208810610a52575b0160051c0190610e21565b8a610966565b92508192610a41565b600184016000526020600020908382015b8183018110610a7c575050610739565b80610a8960019254610cd3565b80610a96575b5001610a6c565b601f908181118414610aaf575050600081555b89610a8f565b610acb60009284845260208420920160051c8201858301610e21565b81835555610aa9565b60405162461bcd60e51b815260206004820152602660248201527f596f752061726520616c7265616479207265676973746572656420617320612060448201526536b2b73a37b960d11b6064820152608490fd5b60405162461bcd60e51b815260206004820152602e60248201527f4f6e6c792034746820796561722073747564656e74732063616e20726567697360448201526d746572206173206d656e746f727360901b6064820152608490fd5b610b9991503d806000833e6103078183610bee565b91505084610681565b833567ffffffffffffffff81116100c357602091610bc7839260243691870101610c44565b81520193019261061a565b6080810190811067ffffffffffffffff82111761028357604052565b90601f8019910116810190811067ffffffffffffffff82111761028357604052565b67ffffffffffffffff81116102835760051b60200190565b67ffffffffffffffff811161028357601f01601f191660200190565b81601f820112156100c357803590610c5b82610c28565b92610c696040519485610bee565b828452602083830101116100c357816000926020809301838601378301015290565b60005b838110610c9e5750506000910152565b8181015183820152602001610c8e565b90602091610cc781518092818552858086019101610c8b565b601f01601f1916010190565b90600182811c92168015610d03575b6020831014610ced57565b634e487b7160e01b600052602260045260246000fd5b91607f1691610ce2565b9060405191826000825492610d2184610cd3565b908184526001948581169081600014610d905750600114610d4d575b5050610d4b92500383610bee565b565b9093915060005260209081600020936000915b818310610d78575050610d4b93508201013880610d3d565b85548884018501529485019487945091830191610d60565b915050610d4b94506020925060ff191682840152151560051b8201013880610d3d565b906060828203126100c357815167ffffffffffffffff81116100c357820181601f820112156100c3578051610de781610c28565b92610df56040519485610bee565b818452602082840101116100c357610e139160208085019101610c8b565b916040602083015192015190565b818110610e2c575050565b60008155600101610e2156fea2646970667358221220b5a8cb8d5d3c50910ac9d77c79363e7cd20e19f34401efcfe2af30d147cbd97c64736f6c63430008130033",
  "immutableReferences": {},
  "source": "// SPDX-License-Identifier: MIT\r\npragma solidity ^0.8.19;\r\n//Importing IStudentRegistry to interact with student registry and call functions\r\nimport \"./IStudentRegistry.sol\";\r\n\r\n//defining new mentorship program contract\r\n//containing all data, functions and events for the functionailty\r\ncontract MentorshipProgram {\r\n    //Declaring a IStudentRegistry contract\r\n    IStudentRegistry public studentRegistry;\r\n    //Defining structure of mentor data\r\n    struct Mentor {\r\n        //Stores address of mentor\r\n        address mentorAddress;\r\n        //stores array of mentors skills\r\n        string[] skills;\r\n        //stores the subject of their mentpr group\r\n        string subject;\r\n        //array of the addresses of all the students assigned to the mentor\r\n        address[] mentees;\r\n    }\r\n    //mapping address to mentor\r\n    mapping(address => Mentor) public mentors;\r\n    //mapping student(or mentee) to the mentors address\r\n    mapping(address => address) public menteeToMentor;\r\n\r\n    //defining 2 events\r\n    //Logs when mentor is registered\r\n    event MentorRegistered(address indexed mentor, string subject);\r\n    //Loggs when mentee is assigned a mentor\r\n    event MenteeAdded(address indexed mentor, address indexed mentee);\r\n\r\n    //ensures only 4th years can register as mentors\r\n    modifier onlyFourthYear() {\r\n        (, , uint256 year) = studentRegistry.getStudentInfo(msg.sender);\r\n        require(year == 4, \"Only 4th year students can register as mentors\");\r\n        _;\r\n    }\r\n    //ensures non registered mentors can't preform mentor functions\r\n    modifier onlyRegisteredMentor() {\r\n        require(\r\n            mentors[msg.sender].mentorAddress != address(0),\r\n            \"You are not a registered mentor\"\r\n        );\r\n        _;\r\n    }\r\n\r\n    //Initialising the contract with address of the student regiostry contract\r\n    constructor(address _studentRegistry) {\r\n        studentRegistry = IStudentRegistry(_studentRegistry);\r\n    }\r\n\r\n    //function that registers a student as a mentor checking if they are a 4th\r\n    //year and they are not already a mentor\r\n    function registerAsMentor(string[] memory _skills, string memory _subject)\r\n        public\r\n        onlyFourthYear\r\n    {\r\n        //checking if they are already a mentor\r\n        require(\r\n            mentors[msg.sender].mentorAddress == address(0),\r\n            \"You are already registered as a mentor\"\r\n        );\r\n        //creates new mentor struct and stores values\r\n        mentors[msg.sender] = Mentor({\r\n            mentorAddress: msg.sender,\r\n            skills: _skills,\r\n            subject: _subject,\r\n            mentees: new address[](0)\r\n        });\r\n        //logs a new mentor being registered\r\n        emit MentorRegistered(msg.sender, _subject);\r\n    }\r\n\r\n    //function to add mentee to a mentors group, ensures only registered mentors can use this \r\n    function addMentee(address _mentee) public payable onlyRegisteredMentor {\r\n        //ensureing student is not already assigned to this mentor\r\n        require(\r\n            menteeToMentor[_mentee] == address(0),\r\n            \"Mentee is already assigned to a mentor\"\r\n        );\r\n        //gets the students info and ensures the mentee is below 4th year\r\n        (, , uint256 menteeYear) = studentRegistry.getStudentInfo(_mentee);\r\n        require(\r\n            menteeYear < 4,\r\n            \"Only students below 4th year can be mentees\"\r\n        );\r\n        //addes mentee to the mentors list and maps the mentees addres to mentor\r\n        mentors[msg.sender].mentees.push(_mentee);\r\n        menteeToMentor[_mentee] = msg.sender;\r\n        //log new mentee being added to mentor group\r\n        emit MenteeAdded(msg.sender, _mentee);\r\n\r\n        // Transfer funds to the mentor\r\n        require(msg.value > 0, \"No funds sent\");\r\n        payable(msg.sender).transfer(msg.value);\r\n    }\r\n\r\n    //Getter for the mentors data\r\n    function getMentorDetails(address _mentor)\r\n        public\r\n        view\r\n        returns (\r\n            address mentorAddress,\r\n            string[] memory skills,\r\n            string memory subject,\r\n            address[] memory mentees\r\n        )\r\n    {\r\n        Mentor memory mentor = mentors[_mentor];\r\n        return (mentor.mentorAddress, mentor.skills, mentor.subject, mentor.mentees);\r\n    }\r\n}",
  "sourcePath": "C:\\Assignments\\CS4207\\CS4207-Blockbusters-FinalProject\\contracts\\Mentor.sol",
  "compiler": {
    "name": "solc",
    "version": "0.8.19+commit.7dd6d404.Emscripten.clang"
  },
  "schemaVersion": "3.4.16",
  "updatedAt": "2024-12-08T15:51:32.330Z",
  "networkType": "ethereum",
  "devdoc": {
    "kind": "dev",
    "methods": {},
    "version": 1
  },
  "userdoc": {
    "kind": "user",
    "methods": {},
    "version": 1
  }
}