{
  "contractName": "PeerNetwork",
  "abi": [
    {
      "anonymous": false,
      "inputs": [
        {
          "indexed": false,
          "internalType": "string",
          "name": "company",
          "type": "string"
        }
      ],
      "name": "CompanyAdded",
      "type": "event"
    },
    {
      "inputs": [
        {
          "internalType": "string",
          "name": "_company",
          "type": "string"
        }
      ],
      "name": "addCompany",
      "outputs": [],
      "stateMutability": "nonpayable",
      "type": "function"
    },
    {
      "inputs": [],
      "name": "getCompanies",
      "outputs": [
        {
          "internalType": "string[]",
          "name": "",
          "type": "string[]"
        }
      ],
      "stateMutability": "view",
      "type": "function",
      "constant": true
    }
  ],
  "bytecode": "0x6080806040523461001657610520908161001c8239f35b600080fdfe608060409080825260048036101561001657600080fd5b600091823560e01c9081630c0b6691146102af575063d6483d171461003a57600080fd5b346102ab57602092836003193601126102a75781359167ffffffffffffffff8084116102a357366023850112156102a357838201359381851161029057835194601f199161008f601f830184168a0188610478565b818752366024838301011161028c5781889260248b9301838a0137870101528554906801000000000000000082101561027957600191828101808955811015610266578780527f290decd9548b62a8d60345a988386fc84ba6bc95484008f6362f93160ef3e56301938651938411610253575061010c84546104b0565b601f811161020d575b508790601f841160011461018957509180806101789593899a97957ffcc4771a4f6c9c3664806c6257d496276f658e3e74a09ba078ba9acbede307629a9361017e575b501b916000199060031b1c19161790555b51928284938452830190610438565b0390a180f35b890151925038610158565b839293169084885288882091885b8181106101f8575091839161017896947ffcc4771a4f6c9c3664806c6257d496276f658e3e74a09ba078ba9acbede307629a9b989694106101df575b5050811b019055610169565b88015160001960f88460031b161c1916905538806101d3565b88830151845592850192918a01918a01610197565b848852888820601f850160051c8101918a8610610249575b601f0160051c019083905b82811061023e575050610115565b898155018390610230565b9091508190610225565b634e487b7160e01b885260419052602487fd5b634e487b7160e01b885260328552602488fd5b634e487b7160e01b875260418452602487fd5b8780fd5b634e487b7160e01b865260418352602486fd5b8480fd5b8280fd5b5080fd5b849291503461043457836003193601126104345783549167ffffffffffffffff831161042157506005939060206102ea84871b820183610478565b83825282805280820193837f290decd9548b62a8d60345a988386fc84ba6bc95484008f6362f93160ef3e563865b8383106103775750505050845194818601928287525180935282818701971b8601019392955b82871061034b5785850386f35b909192938280610367600193603f198a82030186528851610438565b960192019601959291909261033e565b89858a9896979851928793855461038d816104b0565b9081835260019586821691826000146104035750506001146103cb575b506103b9816001960382610478565b81520192019201919095949395610318565b868a52838a20955089905b8082106103ec57508101830194506103b96103aa565b8654838301860152958501958b94909101906103d6565b60ff19168685015291151590911b8201840195506103b990506103aa565b634e487b7160e01b855260419052602484fd5b8380fd5b919082519283825260005b848110610464575050826000602080949584010152601f8019910116010190565b602081830181015184830182015201610443565b90601f8019910116810190811067ffffffffffffffff82111761049a57604052565b634e487b7160e01b600052604160045260246000fd5b90600182811c921680156104e0575b60208310146104ca57565b634e487b7160e01b600052602260045260246000fd5b91607f16916104bf56fea26469706673582212201c9a20bf8eb6754789f0e39d94b2f0fd7c590722aa0101b978c5db650a1b50ae64736f6c63430008130033",
  "immutableReferences": {},
  "source": "// SPDX-License-Identifier: MIT\r\npragma solidity ^0.8.19;\r\n\r\ncontract PeerNetwork {\r\n    // List of companies for co-op placements\r\n    string[] private companies;\r\n\r\n    event CompanyAdded(string company);\r\n\r\n    // Add a company to the list\r\n    function addCompany(string memory _company) public {\r\n        companies.push(_company);\r\n        emit CompanyAdded(_company);\r\n    }\r\n\r\n    // Retrieve the list of companies\r\n    function getCompanies() public view returns (string[] memory) {\r\n        return companies;\r\n    }\r\n}",
  "sourcePath": "C:\\Assignments\\CS4207\\CS4207-Blockbusters-FinalProject\\contracts\\PeerNetwork.sol",
  "compiler": {
    "name": "solc",
    "version": "0.8.19+commit.7dd6d404.Emscripten.clang"
  },
  "schemaVersion": "3.4.16",
  "updatedAt": "2024-12-08T11:32:06.282Z",
  "networkType": "ethereum",
  "devdoc": {
    "kind": "dev",
    "methods": {},
    "version": 1
  },
  "userdoc": {
    "kind": "user",
    "methods": {},
    "version": 1
  }
}