{
  "contractName": "PeerNetwork",
  "abi": [
    {
      "anonymous": false,
      "inputs": [
        {
          "indexed": false,
          "internalType": "string",
          "name": "company",
          "type": "string"
        },
        {
          "indexed": false,
          "internalType": "string",
          "name": "ipfsHash",
          "type": "string"
        }
      ],
      "name": "CVLinkedToCompany",
      "type": "event"
    },
    {
      "anonymous": false,
      "inputs": [
        {
          "indexed": false,
          "internalType": "string",
          "name": "company",
          "type": "string"
        }
      ],
      "name": "CompanyAdded",
      "type": "event"
    },
    {
      "inputs": [
        {
          "internalType": "string",
          "name": "_company",
          "type": "string"
        }
      ],
      "name": "addCompany",
      "outputs": [],
      "stateMutability": "nonpayable",
      "type": "function"
    },
    {
      "inputs": [],
      "name": "getCompanies",
      "outputs": [
        {
          "internalType": "string[]",
          "name": "",
          "type": "string[]"
        }
      ],
      "stateMutability": "view",
      "type": "function"
    },
    {
      "inputs": [
        {
          "internalType": "string",
          "name": "_company",
          "type": "string"
        },
        {
          "internalType": "string",
          "name": "_ipfsHash",
          "type": "string"
        }
      ],
      "name": "linkCVToCompany",
      "outputs": [],
      "stateMutability": "nonpayable",
      "type": "function"
    },
    {
      "inputs": [
        {
          "internalType": "string",
          "name": "_company",
          "type": "string"
        }
      ],
      "name": "getCVsForCompany",
      "outputs": [
        {
          "internalType": "string[]",
          "name": "",
          "type": "string[]"
        }
      ],
      "stateMutability": "view",
      "type": "function"
    }
  ],
  "bytecode": "0x6080806040523461001657610944908161001c8239f35b600080fdfe608060409080825260048036101561001657600080fd5b600091823560e01c9081630c0b66911461066f5750806316e485711461051f57806322586521146102695763d6483d171461005057600080fd5b3461026557602092836003193601126102615767ffffffffffffffff91803583811161025d576100839036908301610878565b928454600160401b81101561024a57600190818101808855811015610237578680527f290decd9548b62a8d60345a988386fc84ba6bc95484008f6362f93160ef3e5630192855192831161022457506100dc83546108d4565b601f81116101de575b5086601f8311600114610157579180806101469593899a97957ffcc4771a4f6c9c3664806c6257d496276f658e3e74a09ba078ba9acbede307629a9361014c575b501b916000199060031b1c19161790555b519282849384528301906107b9565b0390a180f35b890151925038610126565b83875287872091929190601f198316885b8181106101c9575091839161014696947ffcc4771a4f6c9c3664806c6257d496276f658e3e74a09ba078ba9acbede307629a9b989694106101b0575b5050811b019055610137565b88015160001960f88460031b161c1916905538806101a4565b88830151845592850192918a01918a01610168565b838752878720601f840160051c81019189851061021a575b601f0160051c019082905b82811061020f5750506100e5565b888155018290610201565b90915081906101f6565b634e487b7160e01b875260419052602486fd5b634e487b7160e01b875260328452602487fd5b634e487b7160e01b865260418352602486fd5b8480fd5b8280fd5b5080fd5b50913461026557806003193601126102655767ffffffffffffffff90833582811161051b5761029b9036908601610878565b916024948535828111610517576102b59036908301610878565b918451156104de578251156104a85783518551976020986102d981848c8b01610796565b820191898160019485815203019020805490600160401b821015610496578382018082558210156104845789528989200193855193841161047357505061032083546108d4565b601f811161042d575b5087601f83116001146103a657918080899a959361014697957fb18bbe2827f72921e21e62123a9f50817cb1e7f6cacd64138e11dc689240c4479b9361039b575b501b916000199060031b1c19161790555b61038e84519585879687528601906107b9565b91848303908501526107b9565b86015192503861036a565b83885288882091929190601f198316895b81811061041857509183917fb18bbe2827f72921e21e62123a9f50817cb1e7f6cacd64138e11dc689240c4479a9b9694610146989694106103ff575b5050811b01905561037b565b85015160001960f88460031b161c1916905538806103f3565b87830151845592850192918b01918b016103b7565b838852888820601f840160051c8101918a8510610469575b601f0160051c019082905b82811061045e575050610329565b898155018290610450565b9091508190610445565b634e487b7160e01b89526041905287fd5b634e487b7160e01b8a5260328652828afd5b634e487b7160e01b8a5260418652828afd5b835162461bcd60e51b815260208184015260118189015270092dcecc2d8d2c84092a08ca640d0c2e6d607b1b6044820152606490fd5b835162461bcd60e51b815260208184015260148189015273496e76616c696420636f6d70616e79206e616d6560601b6044820152606490fd5b8580fd5b8380fd5b509134610265576020918260031936011261066c5767ffffffffffffffff8435818111610261576105539036908701610878565b918461056785519485815193849201610796565b83019285816001958681520301902095865492831161065957509483519460059661059682858a1b0188610840565b838752918252808220828288015b8585106105bc578751806105b88b826107de565b0390f35b868489519284938d87546105cf816108d4565b8084529181871691821561063b575050600114610603575b506105f58185960382610840565b8152019301940193916105a4565b8787528387208796505b8187106106245750509384018201936105f56105e7565b805483880186015293909501948b9489940161060d565b60ff19168685015291151590911b8201840195506105f590506105e7565b634e487b7160e01b825260419052602490fd5b80fd5b918491503461051b578360031936011261051b5783549067ffffffffffffffff82116107835750600560206106a883831b820186610840565b82855285805285907f290decd9548b62a8d60345a988386fc84ba6bc95484008f6362f93160ef3e5638187015b8584106106e9578651806105b88a826107de565b8651838a928454926106fa846108d4565b8082526001948086169081156107685750600114610730575b50610722816001960382610840565b8152019201930192906106d5565b868e52838e2095508d905b8082106107515750810183019450610722610713565b86548383018601529585019588949091019061073b565b60ff191685840152501515891b810183019450610722610713565b634e487b7160e01b855260419052602484fd5b60005b8381106107a95750506000910152565b8181015183820152602001610799565b906020916107d281518092818552858086019101610796565b601f01601f1916010190565b602080820190808352835180925260408301928160408460051b8301019501936000915b8483106108125750505050505090565b9091929394958480610830600193603f198682030187528a516107b9565b9801930193019194939290610802565b90601f8019910116810190811067ffffffffffffffff82111761086257604052565b634e487b7160e01b600052604160045260246000fd5b81601f820112156108cf5780359067ffffffffffffffff821161086257604051926108ad601f8401601f191660200185610840565b828452602083830101116108cf57816000926020809301838601378301015290565b600080fd5b90600182811c92168015610904575b60208310146108ee57565b634e487b7160e01b600052602260045260246000fd5b91607f16916108e356fea264697066735822122002c7a24b762047e6134ec2531f123996747fc38c4c9c4574c6b624957fd9f45064736f6c63430008130033",
  "immutableReferences": {},
  "source": "// SPDX-License-Identifier: MIT\r\npragma solidity ^0.8.19;\r\n\r\nimport \"./CVShare.sol\";\r\n\r\ncontract PeerNetwork {\r\n    // List of companies for co-op placements\r\n    string[] private companies;\r\n    mapping(string => string[]) private companyCVs; // Map company to list of CV IPFS hashes\r\n\r\n    event CompanyAdded(string company);\r\n    event CVLinkedToCompany(string company, string ipfsHash);\r\n\r\n    // Add a company to the list\r\n    function addCompany(string memory _company) public {\r\n        companies.push(_company);\r\n        emit CompanyAdded(_company);\r\n    }\r\n\r\n    // Retrieve the list of companies\r\n    function getCompanies() public view returns (string[] memory) {\r\n        return companies;\r\n    }\r\n\r\n    // Link a CV to a company\r\n    function linkCVToCompany(string memory _company, string memory _ipfsHash) public {\r\n        require(bytes(_company).length > 0, \"Invalid company name\");\r\n        require(bytes(_ipfsHash).length > 0, \"Invalid IPFS hash\");\r\n        companyCVs[_company].push(_ipfsHash);\r\n        emit CVLinkedToCompany(_company, _ipfsHash);\r\n    }\r\n\r\n    // Retrieve CVs linked to a company\r\n    function getCVsForCompany(string memory _company) public view returns (string[] memory) {\r\n        return companyCVs[_company];\r\n    }\r\n}\r\n",
  "sourcePath": "C:\\Assignments\\CS4207\\CS4207-Blockbusters-FinalProject\\contracts\\PeerNetwork.sol",
  "compiler": {
    "name": "solc",
    "version": "0.8.19+commit.7dd6d404.Emscripten.clang"
  },
  "schemaVersion": "3.4.16",
  "updatedAt": "2024-12-08T08:58:42.419Z",
  "devdoc": {
    "kind": "dev",
    "methods": {},
    "version": 1
  },
  "userdoc": {
    "kind": "user",
    "methods": {},
    "version": 1
  }
}