{
  "contractName": "StudentRegistry",
  "abi": [
    {
      "inputs": [],
      "stateMutability": "nonpayable",
      "type": "constructor"
    },
    {
      "anonymous": false,
      "inputs": [
        {
          "indexed": true,
          "internalType": "address",
          "name": "studentAddress",
          "type": "address"
        },
        {
          "indexed": false,
          "internalType": "uint256",
          "name": "studentId",
          "type": "uint256"
        },
        {
          "indexed": false,
          "internalType": "string",
          "name": "name",
          "type": "string"
        }
      ],
      "name": "StudentRegistered",
      "type": "event"
    },
    {
      "inputs": [],
      "name": "owner",
      "outputs": [
        {
          "internalType": "address",
          "name": "",
          "type": "address"
        }
      ],
      "stateMutability": "view",
      "type": "function"
    },
    {
      "inputs": [
        {
          "internalType": "uint256",
          "name": "",
          "type": "uint256"
        }
      ],
      "name": "studentIdToAddress",
      "outputs": [
        {
          "internalType": "address",
          "name": "",
          "type": "address"
        }
      ],
      "stateMutability": "view",
      "type": "function"
    },
    {
      "inputs": [
        {
          "internalType": "address",
          "name": "",
          "type": "address"
        }
      ],
      "name": "students",
      "outputs": [
        {
          "internalType": "string",
          "name": "name",
          "type": "string"
        },
        {
          "internalType": "uint256",
          "name": "studentId",
          "type": "uint256"
        },
        {
          "internalType": "uint256",
          "name": "yearOfStudy",
          "type": "uint256"
        },
        {
          "internalType": "bool",
          "name": "isRegistered",
          "type": "bool"
        },
        {
          "internalType": "address",
          "name": "studentAddress",
          "type": "address"
        }
      ],
      "stateMutability": "view",
      "type": "function"
    },
    {
      "inputs": [],
      "name": "totalStudents",
      "outputs": [
        {
          "internalType": "uint256",
          "name": "",
          "type": "uint256"
        }
      ],
      "stateMutability": "view",
      "type": "function"
    },
    {
      "inputs": [
        {
          "internalType": "address",
          "name": "_studentAddress",
          "type": "address"
        }
      ],
      "name": "getStudentInfo",
      "outputs": [
        {
          "internalType": "string",
          "name": "name",
          "type": "string"
        },
        {
          "internalType": "uint256",
          "name": "studentId",
          "type": "uint256"
        },
        {
          "internalType": "uint256",
          "name": "yearOfStudy",
          "type": "uint256"
        }
      ],
      "stateMutability": "view",
      "type": "function"
    },
    {
      "inputs": [
        {
          "internalType": "string",
          "name": "_name",
          "type": "string"
        },
        {
          "internalType": "uint256",
          "name": "_studentId",
          "type": "uint256"
        },
        {
          "internalType": "uint256",
          "name": "_yearOfStudy",
          "type": "uint256"
        }
      ],
      "name": "registerStudent",
      "outputs": [],
      "stateMutability": "nonpayable",
      "type": "function"
    }
  ],
  "bytecode": "0x608060405234801561000f575f80fd5b50600380546001600160a01b031916331790555f600255610929806100335f395ff3fe608060405234801561000f575f80fd5b5060043610610060575f3560e01c806330bf31db14610064578063377744a6146100795780634b82caec146100be5780638da5cb5b146100e05780639852bf8e146100f3578063a6c807a91461010a575b5f80fd5b6100776100723660046105c6565b61012e565b005b6100a1610087366004610683565b60016020525f90815260409020546001600160a01b031681565b6040516001600160a01b0390911681526020015b60405180910390f35b6100d16100cc36600461069a565b610390565b6040516100b59392919061070a565b6003546100a1906001600160a01b031681565b6100fc60025481565b6040519081526020016100b5565b61011d61011836600461069a565b6104f0565b6040516100b595949392919061072e565b335f9081526020819052604090206003015460ff16156101955760405162461bcd60e51b815260206004820152601a60248201527f53747564656e7420616c7265616479207265676973746572656400000000000060448201526064015b60405180910390fd5b5f8351116101dc5760405162461bcd60e51b81526020600482015260146024820152734e616d652063616e6e6f7420626520656d70747960601b604482015260640161018c565b5f811180156101ec575060048111155b6102305760405162461bcd60e51b8152602060048201526015602482015274496e76616c69642079656172206f6620737475647960581b604482015260640161018c565b5f82116102745760405162461bcd60e51b8152602060048201526012602482015271125b9d985b1a59081cdd1d59195b9d08125160721b604482015260640161018c565b6040805160a08101825284815260208082018590528183018490526001606083015233608083018190525f9081529081905291909120815181906102b890826107f3565b506020828101516001808401919091556040808501516002808601919091556060860151600390950180546080909701516001600160a01b031661010002610100600160a81b0319961515969096166001600160a81b031990971696909617949094179094555f868152915291822080546001600160a01b03191633179055805491610343836108af565b9190505550336001600160a01b03167f7795cd2116fe8db671579fb005767dc5792883e5d10ef1680d6dd9b909aff28083856040516103839291906108d3565b60405180910390a2505050565b60605f805f805f866001600160a01b03166001600160a01b031681526020019081526020015f206040518060a00160405290815f820180546103d19061076d565b80601f01602080910402602001604051908101604052809291908181526020018280546103fd9061076d565b80156104485780601f1061041f57610100808354040283529160200191610448565b820191905f5260205f20905b81548152906001019060200180831161042b57829003601f168201915b5050509183525050600182015460208201526002820154604082015260039091015460ff811615156060808401919091526101009091046001600160a01b03166080909201919091528101519091506104d75760405162461bcd60e51b815260206004820152601160248201527014dd1d59195b9d081b9bdd08199bdd5b99607a1b604482015260640161018c565b8051602082015160409092015190969195509350915050565b5f6020819052908152604090208054819061050a9061076d565b80601f01602080910402602001604051908101604052809291908181526020018280546105369061076d565b80156105815780601f1061055857610100808354040283529160200191610581565b820191905f5260205f20905b81548152906001019060200180831161056457829003601f168201915b50505050600183015460028401546003909401549293909290915060ff81169061010090046001600160a01b031685565b634e487b7160e01b5f52604160045260245ffd5b5f805f606084860312156105d8575f80fd5b833567ffffffffffffffff808211156105ef575f80fd5b818601915086601f830112610602575f80fd5b813581811115610614576106146105b2565b604051601f8201601f19908116603f0116810190838211818310171561063c5761063c6105b2565b81604052828152896020848701011115610654575f80fd5b826020860160208301375f60208483010152809750505050505060208401359150604084013590509250925092565b5f60208284031215610693575f80fd5b5035919050565b5f602082840312156106aa575f80fd5b81356001600160a01b03811681146106c0575f80fd5b9392505050565b5f81518084525f5b818110156106eb576020818501810151868301820152016106cf565b505f602082860101526020601f19601f83011685010191505092915050565b606081525f61071c60608301866106c7565b60208301949094525060400152919050565b60a081525f61074060a08301886106c7565b602083019690965250604081019390935290151560608301526001600160a01b0316608090910152919050565b600181811c9082168061078157607f821691505b60208210810361079f57634e487b7160e01b5f52602260045260245ffd5b50919050565b601f8211156107ee575f81815260208120601f850160051c810160208610156107cb5750805b601f850160051c820191505b818110156107ea578281556001016107d7565b5050505b505050565b815167ffffffffffffffff81111561080d5761080d6105b2565b6108218161081b845461076d565b846107a5565b602080601f831160018114610854575f841561083d5750858301515b5f19600386901b1c1916600185901b1785556107ea565b5f85815260208120601f198616915b8281101561088257888601518255948401946001909101908401610863565b508582101561089f57878501515f19600388901b60f8161c191681555b5050505050600190811b01905550565b5f600182016108cc57634e487b7160e01b5f52601160045260245ffd5b5060010190565b828152604060208201525f6108eb60408301846106c7565b94935050505056fea2646970667358221220b3a1d1f5076ac4f373411cf7d2ea8deb40e71fe155ba0c4543ebb4bc22fdc21064736f6c63430008150033",
  "immutableReferences": {},
  "source": "// SPDX-License-Identifier: MIT\r\npragma solidity ^0.8.21;\r\n\r\ncontract StudentRegistry {\r\n    struct Student {\r\n        string name;\r\n        uint256 studentId;\r\n        uint256 yearOfStudy;\r\n        bool isRegistered;\r\n        address studentAddress;\r\n    }\r\n    \r\n    mapping(address => Student) public students;\r\n    mapping(uint256 => address) public studentIdToAddress;\r\n    uint256 public totalStudents;\r\n    address public owner;\r\n    \r\n    event StudentRegistered(address indexed studentAddress, uint256 studentId, string name);\r\n    \r\n    constructor() {\r\n        owner = msg.sender;\r\n        totalStudents = 0;\r\n    }\r\n    \r\n    modifier notRegistered() {\r\n        require(!students[msg.sender].isRegistered, \"Student already registered\");\r\n        _;\r\n    }\r\n    \r\n    modifier onlyRegistered() {\r\n        require(students[msg.sender].isRegistered, \"Student not registered\");\r\n        _;\r\n    }\r\n\r\n    // Add this function\r\n    function getStudentInfo(address _studentAddress) \r\n        public \r\n        view \r\n        returns (\r\n            string memory name,\r\n            uint256 studentId,\r\n            uint256 yearOfStudy\r\n        ) \r\n    {\r\n        Student memory student = students[_studentAddress];\r\n        require(student.isRegistered, \"Student not found\");\r\n        return (\r\n            student.name,\r\n            student.studentId,\r\n            student.yearOfStudy\r\n        );\r\n    }\r\n    \r\n    function registerStudent(\r\n        string memory _name,\r\n        uint256 _studentId,\r\n        uint256 _yearOfStudy\r\n    ) public notRegistered {\r\n        require(bytes(_name).length > 0, \"Name cannot be empty\");\r\n        require(_yearOfStudy > 0 && _yearOfStudy <= 4, \"Invalid year of study\");\r\n        require(_studentId > 0, \"Invalid student ID\");\r\n        \r\n        students[msg.sender] = Student({\r\n            name: _name,\r\n            studentId: _studentId,\r\n            yearOfStudy: _yearOfStudy,\r\n            isRegistered: true,\r\n            studentAddress: msg.sender\r\n        });\r\n        \r\n        studentIdToAddress[_studentId] = msg.sender;\r\n        totalStudents++;\r\n        \r\n        emit StudentRegistered(msg.sender, _studentId, _name);\r\n    }\r\n}",
  "sourcePath": "C:\\Assignments\\CS4207\\CS4207-Blockbusters-FinalProject\\contracts\\StudentRegistry.sol",
  "compiler": {
    "name": "solc",
    "version": "0.8.21+commit.d9974bed.Emscripten.clang"
  },
  "schemaVersion": "3.4.16",
  "updatedAt": "2024-12-02T11:58:07.495Z",
  "devdoc": {
    "kind": "dev",
    "methods": {},
    "version": 1
  },
  "userdoc": {
    "kind": "user",
    "methods": {},
    "version": 1
  }
}