{
  "contractName": "StudentRegistry",
  "abi": [
    {
      "inputs": [],
      "stateMutability": "payable",
      "type": "constructor"
    },
    {
      "anonymous": false,
      "inputs": [
        {
          "indexed": true,
          "internalType": "address",
          "name": "studentAddress",
          "type": "address"
        },
        {
          "indexed": false,
          "internalType": "uint256",
          "name": "studentId",
          "type": "uint256"
        },
        {
          "indexed": false,
          "internalType": "string",
          "name": "name",
          "type": "string"
        }
      ],
      "name": "StudentRegistered",
      "type": "event"
    },
    {
      "inputs": [],
      "name": "owner",
      "outputs": [
        {
          "internalType": "address",
          "name": "",
          "type": "address"
        }
      ],
      "stateMutability": "view",
      "type": "function"
    },
    {
      "inputs": [
        {
          "internalType": "uint256",
          "name": "",
          "type": "uint256"
        }
      ],
      "name": "studentIdToAddress",
      "outputs": [
        {
          "internalType": "address",
          "name": "",
          "type": "address"
        }
      ],
      "stateMutability": "view",
      "type": "function"
    },
    {
      "inputs": [
        {
          "internalType": "address",
          "name": "",
          "type": "address"
        }
      ],
      "name": "students",
      "outputs": [
        {
          "internalType": "string",
          "name": "name",
          "type": "string"
        },
        {
          "internalType": "uint256",
          "name": "studentId",
          "type": "uint256"
        },
        {
          "internalType": "uint256",
          "name": "yearOfStudy",
          "type": "uint256"
        },
        {
          "internalType": "bool",
          "name": "isRegistered",
          "type": "bool"
        },
        {
          "internalType": "address",
          "name": "studentAddress",
          "type": "address"
        }
      ],
      "stateMutability": "view",
      "type": "function"
    },
    {
      "inputs": [],
      "name": "totalStudents",
      "outputs": [
        {
          "internalType": "uint256",
          "name": "",
          "type": "uint256"
        }
      ],
      "stateMutability": "view",
      "type": "function"
    },
    {
      "inputs": [
        {
          "internalType": "address",
          "name": "_studentAddress",
          "type": "address"
        }
      ],
      "name": "getStudentInfo",
      "outputs": [
        {
          "internalType": "string",
          "name": "name",
          "type": "string"
        },
        {
          "internalType": "uint256",
          "name": "studentId",
          "type": "uint256"
        },
        {
          "internalType": "uint256",
          "name": "yearOfStudy",
          "type": "uint256"
        }
      ],
      "stateMutability": "view",
      "type": "function"
    },
    {
      "inputs": [
        {
          "internalType": "string",
          "name": "_name",
          "type": "string"
        },
        {
          "internalType": "uint256",
          "name": "_studentId",
          "type": "uint256"
        },
        {
          "internalType": "uint256",
          "name": "_yearOfStudy",
          "type": "uint256"
        }
      ],
      "name": "registerStudent",
      "outputs": [],
      "stateMutability": "nonpayable",
      "type": "function"
    }
  ],
  "bytecode": "0x60a080604052331561002c573360805260006002556040516107eb908161006f8239608051816101240152f35b62461bcd60e51b815260206004820152601860248201527f496e76616c6964206465706c6f796572206164647265737300000000000000006044820152606490fdfe608080604052600436101561001357600080fd5b60003560e01c90816330bf31db1461027257508063377744a61461023e5780634b82caec146101535780638da5cb5b1461010e5780639852bf8e146100f05763a6c807a91461006157600080fd5b346100eb5760203660031901126100eb576004356001600160a01b03818116918290036100eb576100c891600052600060205260406000206100a28161070f565b91600182015491600360028201549101549060405195869560a0875260a0870190610695565b936020860152604085015260ff81161515606085015260081c1660808301520390f35b600080fd5b346100eb5760003660031901126100eb576020600254604051908152f35b346100eb5760003660031901126100eb576040517f00000000000000000000000000000000000000000000000000000000000000006001600160a01b03168152602090f35b346100eb5760203660031901126100eb576001600160a01b03600435818116908190036100eb5760005260006020526040600020906040519161019583610657565b61019e8161070f565b83526001810154916020840192835260036002830154926040860193845201549060ff821615918215606087015260081c166080850152610205576101f6925191519051604051938493606085526060850190610695565b91602084015260408301520390f35b60405162461bcd60e51b815260206004820152601160248201527014dd1d59195b9d081b9bdd08199bdd5b99607a1b6044820152606490fd5b346100eb5760203660031901126100eb576004356000526001602052602060018060a01b0360406000205416604051908152f35b346100eb5760603660031901126100eb5767ffffffffffffffff906004358281116100eb57366023820112156100eb5780600401359083821161053e576102c3601f8301601f191660200184610673565b81835236602483830101116100eb5781600092602460209301838601378301015260443533600052600060205260ff60036040600020015416610612578151156105d657801515806105cb575b1561058e5760243515610554576040519061032a82610657565b82825260243560208301526040820152600160608201523360808201523360005260006020526040600020815193845190811161053e5761036b82546106d5565b601f81116104fa575b506020601f82116001146104905781906003949596600092610485575b50508160011b9160001990851b1c19161781555b60208301516001820155604083015160028201550190606081015115159060ff8354916080610100600160a81b0391015160081b169216906affffffffffffffffffffff60a81b161717905560243560005260016020526040600020336bffffffffffffffffffffffff60a01b825416179055600254600019811461046f576001016002557f7795cd2116fe8db671579fb005767dc5792883e5d10ef1680d6dd9b909aff2806040516024358152604060208201528061046a33946040830190610695565b0390a2005b634e487b7160e01b600052601160045260246000fd5b015190508680610391565b601f198216958360005260206000209660005b8181106104e25750916003959697918460019594106104ca575b505050811b0181556103a5565b015160001983871b60f8161c191690558680806104bd565b838301518955600190980197602093840193016104a3565b826000526020600020601f830160051c810160208410610537575b601f830160051c8201811061052b575050610374565b60008155600101610515565b5080610515565b634e487b7160e01b600052604160045260246000fd5b60405162461bcd60e51b8152602060048201526012602482015271125b9d985b1a59081cdd1d59195b9d08125160721b6044820152606490fd5b60405162461bcd60e51b8152602060048201526015602482015274496e76616c69642079656172206f6620737475647960581b6044820152606490fd5b506004811115610310565b60405162461bcd60e51b81526020600482015260146024820152734e616d652063616e6e6f7420626520656d70747960601b6044820152606490fd5b60405162461bcd60e51b815260206004820152601a60248201527f53747564656e7420616c726561647920726567697374657265640000000000006044820152606490fd5b60a0810190811067ffffffffffffffff82111761053e57604052565b90601f8019910116810190811067ffffffffffffffff82111761053e57604052565b919082519283825260005b8481106106c1575050826000602080949584010152601f8019910116010190565b6020818301810151848301820152016106a0565b90600182811c92168015610705575b60208310146106ef57565b634e487b7160e01b600052602260045260246000fd5b91607f16916106e4565b9060405191826000825492610723846106d5565b908184526001948581169081600014610792575060011461074f575b505061074d92500383610673565b565b9093915060005260209081600020936000915b81831061077a57505061074d9350820101388061073f565b85548884018501529485019487945091830191610762565b91505061074d94506020925060ff191682840152151560051b820101388061073f56fea2646970667358221220cf39f8ec5edac08c54d3870baa6b6b37f0a93ef5d8e3fa2ed3621b2a9202ea3164736f6c63430008130033",
  "immutableReferences": {
    "553": [
      {
        "length": 32,
        "start": 292
      }
    ]
  },
  "source": "// SPDX-License-Identifier: MIT\r\npragma solidity ^0.8.19;\r\n\r\ncontract StudentRegistry {\r\n    struct Student {\r\n        string name;\r\n        uint256 studentId;\r\n        uint256 yearOfStudy;\r\n        bool isRegistered;\r\n        address studentAddress;\r\n    }\r\n    \r\n    mapping(address => Student) public students;\r\n    mapping(uint256 => address) public studentIdToAddress;\r\n    uint256 public totalStudents;\r\n    address public immutable owner;\r\n    \r\n    event StudentRegistered(address indexed studentAddress, uint256 studentId, string name);\r\n    \r\n    constructor() payable {\r\n        require(msg.sender != address(0), \"Invalid deployer address\");\r\n        owner = msg.sender;\r\n        totalStudents = 0;\r\n    }\r\n    \r\n    modifier notRegistered() {\r\n        require(!students[msg.sender].isRegistered, \"Student already registered\");\r\n        _;\r\n    }\r\n    \r\n    modifier onlyRegistered() {\r\n        require(students[msg.sender].isRegistered, \"Student not registered\");\r\n        _;\r\n    }\r\n\r\n    function getStudentInfo(address _studentAddress) public view returns (string memory name, uint256 studentId, uint256 yearOfStudy) {\r\n        Student memory student = students[_studentAddress];\r\n        require(student.isRegistered, \"Student not found\");\r\n        return (student.name, student.studentId, student.yearOfStudy);\r\n    }\r\n    \r\n    function registerStudent(string memory _name, uint256 _studentId, uint256 _yearOfStudy) public notRegistered {\r\n        require(bytes(_name).length > 0, \"Name cannot be empty\");\r\n        require(_yearOfStudy > 0 && _yearOfStudy <= 4, \"Invalid year of study\");\r\n        require(_studentId > 0, \"Invalid student ID\");\r\n        \r\n        students[msg.sender] = Student({\r\n            name: _name,\r\n            studentId: _studentId,\r\n            yearOfStudy: _yearOfStudy,\r\n            isRegistered: true,\r\n            studentAddress: msg.sender\r\n        });\r\n        \r\n        studentIdToAddress[_studentId] = msg.sender;\r\n        totalStudents++;\r\n        \r\n        emit StudentRegistered(msg.sender, _studentId, _name);\r\n    }\r\n}",
  "sourcePath": "C:\\Assignments\\CS4207\\CS4207-Blockbusters-FinalProject\\contracts\\StudentRegistry.sol",
  "compiler": {
    "name": "solc",
    "version": "0.8.19+commit.7dd6d404.Emscripten.clang"
  },
  "schemaVersion": "3.4.16",
  "updatedAt": "2024-12-08T08:58:42.420Z",
  "devdoc": {
    "kind": "dev",
    "methods": {},
    "version": 1
  },
  "userdoc": {
    "kind": "user",
    "methods": {},
    "version": 1
  }
}